:1000000000000320D1010000592800001128000041
:1000100011280000112800001128000011280000FC
:1000200011280000112800001128000059280000A4
:100030005928000011280000E5410000E9420000B5
:1000400059280000592800005928000059280000AC
:10005000592800005928000059280000592800009C
:10006000592800005928000059280000592800008C
:10007000592800005928000059280000592800007C
:10008000592800005928000059280000592800006C
:10009000592800005928000059280000592800005C
:1000A000692200007522000059280000592800002C
:1000B000592800005928000059280000094800006C
:1000C000592800003549000059280000614A000005
:1000D00059280000594B00005928000059280000F9
:1000E000592800005928000059280000592800000C
:1000F00059280000592800005928000059280000FC
:100100004143000055430000694300007D43000067
:1001100059280000C92D0000592800005928000066
:1001200059280000592800005928000059280000CB
:1001300059280000592800005928000059280000BB
:10014000993F000059280000514C00005928000038
:10015000592800005928000059280000592800009B
:100160005928000059280000812200005928000069
:10017000592800005928000059280000592800007B
:10018000592800005928000059280000592800006B
:100190005928000059280000494D00005928000046
:1001A000592800005928000059280000592800004B
:1001B000592800005928000059280000592800003B
:1001C000592800005928000059280000592800002B
:1001D0005C4B4CF2205210B51A804DF628121A8052
:1001E00000BF00BF02F03CFB574B4FF030621A607B
:1001F000564A9A60564ADA60564B4FF470021A60BB
:10020000554B564A1A60564A136813F4807304D14A
:1002100054490B604FF4A8531360534B1A781107DD
:1002200003D51A7842F008021A70504B5049AA229E
:100230001A70504A504B8B4204D252F8040F43F8C4
:10024000040BF8E74D4B4E4900228B4202D243F893
:10025000042BFAE74B494C4A002352F8230041F89B
:1002600023000133742BF8D1484B494A802103F80D
:10027000011B9342FBD1474B424A1A60464B8A22EC
:100280001A70A3F5805324225A70A0221A709A790A
:100290009207FCD59A79D406FCD4404A937903F0AE
:1002A0000C03082BFAD13E4B60221A7002331A78E5
:1002B000802AFCD1394B00221A7145225A719A7951
:1002C0009006FCD59979354A4906FBD5354B364918
:1002D00019600D21596020231370937903F00C03EA
:1002E0000C2BFAD1314B324A1A60324B324A1A6027
:1002F00000225A60072243F8042C304AC3F80C2D20
:1003000062B602F0D1FB174B1B68DA0705D52C4803
:1003100002F05CFB2B4B2C4A1A602C4B1B785B06C3
:1003200009D5284C284B22689A4204D1244802F06F
:100330004DFB0023236006F0B5F902F097FA04F0B4
:1003400027F8FEE70E20054030800440823F04007D
:100350000100002B88ED00E0002008E0030000858C
:1003600010D0034014D0034002D0074000E0074003
:10037000CC27FF1F24770100301DFF1FCC27FF1F54
:10038000144AFF1F0018FF1F0000000000E400E0F7
:1003900064E400E008ED00E0005006400040064044
:1003A00001E007404480044000000502048004404E
:1003B000C010050014E000E03F9002000000202083
:1003C000F093835C1CE00340A5C3945A00F00740FF
:1003D000FFFFFFFFFFFFFFFFFFFFFFFFFFFFFFFF2D
:1003E000FFFFFFFFFFFFFFFFFFFFFFFFFFFFFFFF1D
:1003F000FFFFFFFFFFFFFFFFFFFFFFFFFFFFFFFF0D
:10040000FFFFFFFFFFFFFFFFFFFFFFFFDEF9FFFF23
:1004100010B5054C237833B9044B13B10448AFF33E
:1004200000800123237010BDCC27FF1F00000000B7
:1004300028770100084B10B51BB108490848AFF3F5
:1004400000800848036803B910BD074B002BFBD0A0
:10045000BDE81040184700BF00000000D027FF1F74
:1004600028770100CC27FF1F000000000128F7EECD
:10047000007A08BFB0EE670A704700BF10B50446A7
:1004800003F03CFF204610BD10B5044603F03CFDD0
:10049000204610BD012817D010EE100A08B580F0D4
:1004A000004005F051FD41EC100B05F0C9F951EC8D
:1004B000100B06F095F807EE100AF7EE007A37EE0B
:1004C000277A87EE870A08BDF7EE007A77EEC07AC2
:1004D00027EE800A704700BF38B5174D41F23D4303
:1004E000EA5C42B3002408211448EC5403F0FAFA01
:1004F000224605F1160305F2164033F8021F984212
:100500000A44FAD107EE902ADFED0D6A9FED0D7ACD
:10051000F8EE677AA7EEA67A17EE100A05F014FD3A
:1005200041EC100B0221084803F0A2FF0648BDE889
:10053000384003F04DBF38BDE827FF1F147000009E
:100540000000803800000000D81EFF1F08B5012100
:10055000062002F053FA0121072002F04FFA012190
:10056000082002F04BFA0021062002F041FA002197
:10057000072002F03DFA00210820BDE8084002F003
:1005800037BA00BFF8B5364E364C306800231946EE
:100590001A4600F041F93068334900F0B5F9306887
:1005A000012100F09BF904F58065002354F8040F45
:1005B00019461A4600F030F920682C4900F0A4F9D9
:1005C000AC42F2D12A4C04F58075002354F8040F94
:1005D0001A46194600F020F92068234900F094F9E2
:1005E000206824494FF4807200F08AF9206831684D
:1005F00000F07EF9AC42E8D11F4C04F14005002325
:1006000054F8040F1A46402100F006F920681649F4
:1006100000F07AF920681949402200F071F9206849
:10062000316800F065F9AC42E9D1154C04F140079E
:1006300000231A462068102100F0EEF825460A49EA
:10064000206800F061F954F8040B0E49102200F004
:1006500057F92868316800F04BF9A742E8D1F8BD96
:10066000B441FF1F443CFF1F950400006D040000CF
:100670005C40FF1F483CFF1F5C41FF1F6040FF1FA5
:10068000443CFF1F6041FF1F10B5184C40F6B831C5
:10069000204600F09FF9204615494FF4E13200F062
:1006A00073F92046012100F049F960B1606C1149ED
:1006B000036811225B68984720460A2100F02CF954
:1006C000204600F05FF901220021084800F04AFAB4
:1006D0000948142103F00AFBFFF738FFFFF752FF28
:1006E0004FF4FA70BDE8104002F08EB9B841FF1F18
:1006F000D81EFF1F207000000002FF1F2DE9F041EF
:10070000384E394D3268DFF80C81C5F8008000237F
:100710006B722B612B72EB600AB95EE01A4653696B
:10072000002BFBD15561314C314B2B6000270E2043
:100730006F61AF80EF80AF7200F0E8FB012004F53D
:10074000A2523B4639462772E760C4F800806072C7
:100750002261274600E03A6942F82310627A234872
:1007600001339A42F7DC32681E4B0AB937E01A4669
:100770005369002BFBD1546141F23C4241F23D43AD
:1007800000261C4F1C491D48A654E654324601233E
:100790006661A680E680A6722160C4F818044FF452
:1007A0008061174804F06EFF38467C603E723D6001
:1007B0007E72FE603E7403F073FB3846114A1249A4
:1007C00005F05EFF114B0F4A1E6080241C7110491A
:1007D0001846BDE8F04105F053BF3560A3E7186047
:1007E000CAE700BF1846FF1F4840FF1FE827FF1F4A
:1007F000BC780000A041FF1FB0780000A870000086
:100800002C3CFF1F301DFF1F890400003C3CFF1FD4
:100810007D040000107000002DE9F04106462DED2A
:10082000028B0C468068042117461D4603F0BAFD72
:10083000F068042103F0B6FD3068042103F0B2FD36
:100840007068042103F0AEFD74754CB365B3002FDE
:100850003DD00E20671E01F05DFFFFB203F02CFFBC
:100860000137DFED1C8A9FED1C8ABF0000244FF08A
:1008700000083368642100201D1903F023FF07EEF0
:10088000900AB8EEE77A7368C7EE287A23440434F6
:10089000A74277EEC87AC5ED007AC3F80080E8D1A8
:1008A000BDEC028BBDE8F081A500284603F078FD81
:1008B000B0601FB9284603F073FDF060284603F0CE
:1008C0006FFD3060284603F06BFD7060C1E7A50046
:1008D000F0E700BF0000C842CDCC4C3E07EE901AB6
:1008E000F8EEE77A0023C0ED047A0375704700BF85
:1008F000027DC36843F82210037D013303757047FE
:100900000275C160704700BF8161704703F084B811
:1009100003F0A6B803F0BCB8074882B0036801939F
:10092000019A114401E0994204D303680093009BAB
:100930009A42F8D902B070471845FF1F10B4104A08
:1009400085B0A1B9136800934168009B591A182912
:100950000DD813680293029C04F11903591A01E09F
:10096000994204D313680193019B9C42F8D9136800
:100970000393039B4360012005B05DF8044B70476F
:100980001845FF1F704700BF2DE9F0410D4D0E4E79
:10099000DFF83C800D4F41641B2401E002F034F885
:1009A0002B78C82043B13378DB0705D5D8F8003061
:1009B0003A689B1A0E2B03D8013CEFD1BDE8F081B9
:1009C000BDE8F081FC45FF1F1446FF1F0C4AFF1FC6
:1009D0001845FF1F00238364436071B1074882B04C
:1009E00003680193019A114401E0994204D303681A
:1009F0000093009B9A42F8D902B070471845FF1F38
:100A000070B5144C84B00546406C236803930368AA
:100A1000039A6A600E465B680F4906229847314682
:100A200000230A22686C03F0E3FC686C0B4903683E
:100A300008225B68984723680293029A02F1320108
:100A400001E0994204D323680193019B9A42F8D9AB
:100A500004B070BD1845FF1F4C70000054700000BA
:100A6000F8B5037E0BB96320F8BD0446406C3B4EDD
:100A700003681B69B3420D466AD103F009F810F010
:100A8000FF0F01D16520F8BD354F606C03681B690D
:100A9000B3425FD102F0FCFF10F0FF0FF2D0606CA8
:100AA00003685B69BB4257D102F0B6FFC3B2A3F142
:100AB00058021E2AE9D801A151F822F0490B000082
:100AC0008B0A00008B0A00008B0A00008B0A0000D2
:100AD0008B0A00008B0A00008B0A00008B0A0000C2
:100AE0008B0A00008B0A00003D0B00008B0A0000FF
:100AF0008B0A00008B0A00008B0A0000670A0000C6
:100B00008B0A00008B0A00008B0A00008B0A000091
:100B10008B0A00008B0A00008B0A00008B0A000081
:100B2000670A00008B0A00008B0A00008B0A000095
:100B30008B0A0000390B00001846F8BD20462946F4
:100B4000FFF75EFF6320F8BD002323766320F8BD26
:100B5000984794E798479FE79847A7E7150900004B
:100B60000D09000070B5054682B01646C9B10123D3
:100B70000D4C037600212846FFF772FF632810D042
:100B800023680193019A511C23680093009B9A42A9
:100B9000F0D89942F8D200212846FFF761FF632878
:100BA000EED12E7602B070BD1845FF1F034B002218
:100BB0009A60DA601A615A61704700BFB841FF1F3E
:100BC000F8B50021054603F05FF9002800F0D08059
:100BD00041F23C43EB5C072B00F2CA80DFE803F0F4
:100BE000C9D0D7DEE5ECF304D5F81C74C5F8380499
:100BF00005F587643B1D224607F5827705F23C41E7
:100C000033F8026B42F8046F9F42F9D1D5F8207493
:100C100005F5C7623B1D07F5827733F8026B42F892
:100C2000046F9F42F9D1D5F8247405F638023B1DB4
:100C300007F5827733F8026B42F8046F9F42F9D1CF
:100C4000D5F8287405F638223B1D07F5827733F86E
:100C5000026B42F8046F9F42F9D1D5F82C7405F667
:100C600038423B1D07F5827733F8026B42F8046F78
:100C70009F42F9D1D5F8307405F638623B1D07F56F
:100C8000827733F8026B42F8046F9F42F9D1D5F8AE
:100C9000347405F581523B1D183207F5827733F81D
:100CA000026B42F8046F9F42F9D105F59152031D82
:100CB000183200F5827033F8026B42F8046F8342F9
:100CC000F9D1D5F8180480B105F5886200F5006700
:100CD00032F9043C30F9026B03FB06F3DB13874265
:100CE00022F8043C02F10402F2D105F5A2500430CE
:100CF000384E04F0A9FC05F2164705F1160054F829
:100D0000041F21FB01F1B1FA81F336F81320B1FB86
:100D1000F2F31A445308B1FBF3F10B445B0820F8DB
:100D2000023FB842EBD141F23D430122EA54D5F8EB
:100D30001C0403F065F8D5F8200403F061F8D5F839
:100D4000240403F05DF8D5F8280403F059F841F2C3
:100D50003C430422EA5405F586610EC9D5F82C04FB
:100D6000C5F81C04C5F82014C5F82424C5F8283497
:100D7000F8BD41F23C430122C5F81C04EA54F8BD19
:100D800041F23C430222C5F82004EA54F8BD41F286
:100D90003C430322C5F82404EA54F8BD41F23C4325
:100DA0000422C5F82804EA54F8BD41F23C43052268
:100DB000C5F82C04EA54F8BD41F23C430622C5F8BC
:100DC0003004EA54F8BD41F23C430722C5F834042C
:100DD000EA54F8BDC0780000164A174B116817484E
:100DE000096912790270994208D2154A1278F2B153
:100DF000144A0121116003F1800001E01846803B94
:100E0000114A126892B110B4104C2188402928BFB1
:100E1000402102EB410240312180023233F8021BB3
:100E200022F8021F9842F9D85DF8044B704703F18D
:100E30008000E5E71442FF1FD016FF1F1F8000400F
:100E40001C42FF1F08E200E01042FF1F0842FF1F84
:100E50002DE9F041054602F07FFF024672B6234BB2
:100E600019887F290AD8002837D0214C2168002909
:100E700036D062B6BDE8F04102F0C2BF1C49002086
:100E80000E6818800A6062B6DFF86CE0194FDEF871
:100E900000303C68DFF864C0311D06F582780A88AE
:100EA0001B1B9203D01880FB0C344FEA840444EAE5
:100EB000937323F38F3021F8020B88451446EED844
:100EC000284631460022CEF800303C6002F0C2FFD6
:100ED0003046BDE8F04102F093BF62B6BDE8F08154
:100EE0002060198062B6BDE8F08100BF0842FF1F94
:100EF0001042FF1F0C42FF1F0442FF1F00B0FB3FC8
:100F000010B5044603F0F0F8204610BDF8B50446CD
:100F1000102001F08DFB022001F064FB042001F0A1
:100F2000BBFB204601F0F6FB3F4B404C4049414A99
:100F30008003034000202360086013685B0208D52B
:100F40003D4B1A6848F6A273134048F6A2729342CA
:100F500058D03849384A0B68384F394D39483A4CDF
:100F600043F480030B604FF0010E40F2F44648F664
:100F7000A37140F20113C7F800E02E601160146005
:100F80000360324A324C136843F044031360204636
:100F9000012103F043F823682E4A1A60002199804A
:100FA00022792D48186102F1804202F5043240F2A4
:100FB00001106FF0FF06D8809E6180250220062771
:100FC000A826DD82D960DD8398609F8398821170A6
:100FD000167002F0C9FF2279204B214E1870531170
:100FE0009B0003F160431F4C327003F5614302F133
:100FF000100002F01F0701211B4D44F82050B9409A
:101000001960F8BD0E4B1A6840F2F4439A42A0D121
:101010000A4B1B68012B9CD10A4B1A6840F2011342
:101020009A4296D1ADE700BF00C0FF3F0C42FF1FC0
:101030000442FF1F3C800440006003400C600340FA
:101040000460034010600340A28F010020B0034001
:101050001442FF1F10B003405016FF1F1C42FF1F19
:101060001B8000400018FF1FD90D0000024A0349F1
:10107000034805F005BB00BF301DFF1F010F000036
:101080001442FF1F38B5074D074C08482A46214631
:1010900005F0F6FA2A4621460548BDE8384005F035
:1010A000EFBA00BF301DFF1F010F00002042FF1FDD
:1010B0002842FF1F024A0349034805F0E1BA00BF76
:1010C000301DFF1F010F00003042FF1F024A03497D
:1010D000034805F0D5BA00BF301DFF1F010F000007
:1010E0003842FF1F024A0349034805F0C9BA00BF4E
:1010F000301DFF1F010F00004042FF1F024A03493D
:10110000034805F0BDBA00BF301DFF1F010F0000EE
:101110004842FF1F024A0349034805F0B1BA00BF25
:10112000301DFF1F010F00005042FF1F024A0349FC
:10113000034805F0A5BA00BF301DFF1F010F0000D6
:101140005842FF1F024A0349034805F099BA00BFFD
:10115000301DFF1F010F00006042FF1F024A0349BC
:10116000034805F08DBA00BF301DFF1F010F0000BE
:101170006842FF1F024A0349034805F081BA00BFD5
:10118000301DFF1F010F00007042FF1F024A03497C
:10119000034805F075BA00BF301DFF1F010F0000A6
:1011A0007842FF1F024A0349034805F069BA00BFAD
:1011B000301DFF1F010F00008042FF1F024A03493C
:1011C000034805F05DBA00BF301DFF1F010F00008E
:1011D0008842FF1F024A0349034805F051BA00BF85
:1011E000301DFF1F010F00009042FF1F10B4047F4D
:1011F0004160022CC26003D05DF8044B02F090BF46
:1012000083685DF8044B1847F0B4464B464A986B28
:101210005C6B01791170454922790A701A6B00796B
:101220000870002A46D05968C9688A423ED82168A9
:10123000CC8B240402F1FF3065D4C0F30E00C883C8
:10124000C88B80B2C882996B0968C88B000452D4DD
:10125000C2F30E00C883C88B002480B212F1FF32A3
:10126000C88218BF01221C63596B2E4809680D689B
:1012700000F12C04A54236D00068C46814F0804FF9
:101280000C680D6815BF248824780235013544F0B8
:1012900000440D604463996B254B0979197021490D
:1012A00012B14A6B12791A70F0BC7047521A1A6365
:1012B0000122D9E7D86B196805681E4C0A63CC6215
:1012C000CC682D681C4E24F080440327B542CC60C6
:1012D00083F82D701FD1037F4260022BC2601ED0A5
:1012E000F0BC02F01DBF016890F82C00CC6840F003
:1012F00000404863CFE7CC8BC2F3080004F47E447F
:101300002043C883A7E7CC8BC0F3080004F47E44D5
:101310002043C88394E72B461146F0BC18478368E6
:10132000F0BC1847341DFF1F1F8000401C80004088
:101330001B80004000000FFFED11000000207047EF
:10134000704700BF064B074ADA620221002259604B
:101350009A7083F8242083F8302083F83220704775
:101360009842FF1FA07900002149224A0B6843F0F0
:1013700080030B6011461368DB07FCD40B689B07E6
:10138000F9D41D4B30B44FF08072194D186000E055
:10139000A2B12968194B164C0B40013A002BF7D02B
:1013A00062B1012B0AD1236813F0800F23680FD09C
:1013B00043F001132360032030BC70470C4A1368CC
:1013C00043F4702343F001031360012030BC7047E5
:1013D00013F4803305D0236843F001132360052004
:1013E000F4E7226842F0010218462260EEE700BFEF
:1013F00030100B4024100B400C100B4001000E006D
:1014000070B50D4D0D480E4E00232B60FFF7ACFF5D
:101410006324034606E04BB92B60FFF7A5FF013CB0
:10142000034605D0326805485207F4D4184670BD0B
:10143000002808BF052070BD08100B400000DB0C21
:1014400024100B40F8B5384B1A780AB10320F8BDC8
:101450005B78064603B94902344D354C354B364866
:101460004FF6FF774FF481322F6021601A60FFF74B
:101470007BFF0028EBD1314B31491B681C3406F14E
:10148000400206F510702B68284F43F0200613F435
:10149000E00F2E603ED123681E05FCD50B6842F894
:1014A000403C0B6842F83C3C0B6842F8383C0B6807
:1014B00042F8343C0B6842F8303C0B6842F82C3C54
:1014C0000B6842F8283C0B6842F8243C0B6842F851
:1014D000203C0B6842F81C3C0B6842F8183C0B6837
:1014E00042F8143C0B6842F8103C0B6842F80C3C84
:1014F0000B6842F8083C0B6842F8043C40328242D8
:10150000C1D1002009490B68084A9B07FBD50D4B48
:101510001360F8BD43F4E00343F020033B60FFF7A2
:101520006FFF0120EEE700BFEC42FF1F30100B40C1
:1015300008100B4004100B4010003A1110100B4023
:1015400020100B4022000001F8B52B4B1A780AB18D
:101550000320F8BD5B78044603B94902274D284EA5
:10156000284B29484FF6FF774FF481322F603160C6
:101570001A60FFF7F9FE0028EBD1244B24491B68C1
:101580002E4604F500772B681C4AD806FBD5336835
:1015900013F4E00F1AD104F1400254F8043B0B603D
:1015A000A242FAD12B68DFF854E043F010032B601D
:1015B0002B6813F4E00013D19742E4D10F490B6874
:1015C0000E4A9B07FBD5134B1360F8BD136843F419
:1015D000E00343F010031360FFF712FF0120EDE773
:1015E000DEF8003043F4E00343F01003CEF800309F
:1015F000FFF706FF0120E1E7EC42FF1F30100B4030
:1016000008100B4004100B4000003A1810100B405B
:1016100020100B401200000110B50121007801F0EC
:10162000E7F9114A1378C3B11049CB7A0024184660
:10163000147093B1DA0703D50D4AC86910601846D3
:101640009C0703D50B4B0A6AC87A1A60420705D477
:10165000030702D5084B8A6A1A6010BD074B4A6A15
:10166000C87A1A60F4E700BF0043FF1F341DFF1F54
:1016700000E100E004E100E00CE100E008E100E04E
:10168000234B1A781AB10078002101F0B1B970B477
:10169000204A2149D47A096801251D70002C26D0E2
:1016A00072B6D47AE607234606D51C4DD3682E6859
:1016B0003340D3612B602346A50706D5184D146926
:1016C0002E68D37A344014622C605C0706D5154D21
:1016D00054692E68D37A344054622C601B0705D5B8
:1016E000114C936925682B409362236062B613689E
:1016F000DA688A4207D00D4C1C600D4AD96041F06F
:1017000080441C611A600078002170BC01F070B93F
:101710000043FF1F341DFF1FFC42FF1F80E100E05C
:1017200084E100E088E100E08CE100E001403F005E
:1017300000003F80F0B41248124A036882B0164697
:101740000093009F4FF00045FF24136843F480632B
:101750001360D5625463D36A002BFCDAB36BDBB23F
:10176000FF2B09D003680193019BDB1B8B42ECD359
:10177000002002B0F0BC7047012002B0F0BC7047FE
:101780001845FF1F00C00240F8B50D464FF4967192
:1017900016460446FFF7CEFF284B1A684FF000406C
:1017A00042F4806245F040011A60D8621A465963DB
:1017B000D36A002BFCDA214918204FF000470A6851
:1017C00026FA00F342F48062DBB20A60CF624B6318
:1017D000CB6A002BFCDA083810F1080FEFD155B3B3
:1017E000082D0CBF8721FF21144B1A684FF00040D1
:1017F00042F480621A60D8621A465963D36A002B99
:10180000FCDA0E4A002716464FF00045FF21136808
:1018100043F480631360D5625163D36A002BFCDA12
:10182000B36BD8B21B06607000D4F8BD0137B7F5B2
:10183000807FECD1F8BD9521D6E700BF00C0024003
:10184000F0B41549154A0B6882B016460093009F04
:101850004FF00045FF24136843F480631360D562A2
:101860005463D36A002BFCDAB36BDBB2FF2B4370FB
:101870000AD10B680193019BDB1BB3F5967FEAD974
:10188000002002B0F0BC7047A3F1FE00B0FA80F077
:10189000400902B0F0BC70471845FF1F00C002406D
:1018A000F8B58378032B0E46044618BF4E02154642
:1018B000FFF7E6FE324611212046FFF765FF18B913
:1018C0002046FFF7BDFF20B92046FFF7A5FE002008
:1018D000F8BD204B2049214A1A608E4659631A46AA
:1018E00059631E46596305F5FD70A91C05F5FE7781
:1018F000D36A13F0F00FFBD0C6F834E0B36B01F8F5
:10190000013C1B1201F8023C02318F42F0D105F577
:101910000075A8420DD20F4A1646D36A13F0F00F95
:10192000FBD0B36B191200F8021BA84200F8013C6F
:10193000F3D3084B0949084A196019465A63CB6A20
:10194000044A13F0F00FFAD02046936BFFF764FEC1
:101950000120F8BD00C00240FFFF009000041F807E
:10196000F0B4314E33684FF0004743F48063336086
:101970003D46F762344671633346511C02F201273B
:10198000E26A002AFCDA1A6811F8016C42F48062FB
:101990001A60DD625E63E26A002AFCDA1A6811F8F6
:1019A000026B42F480628F421A60DD625E63E7D1AF
:1019B0001D49CA6A1C4B002AFBDA1A684FF0004521
:1019C00042F48062FF241A601946DD625C63CB6AD0
:1019D000154A002BFBDA13684FF0004543F480638F
:1019E000FF2413601146D5625463CB6A0E4A002B64
:1019F000FBDA13684FF0004543F48063FF24136063
:101A00001146D5625463CB6A074A002BFBDA936B0D
:101A1000DBB203F01F024370A2F10500B0FA80F0C0
:101A20004009F0BC704700BF00C0024070B50446DA
:101A300071B18378032B0D4618BF4D021646FFF790
:101A40001FFE2A4618212046FFF79EFE054620B1BC
:101A50002046FFF7E1FD002070BD3246FE21204602
:101A6000FFF77EFF0028F3D04FF416712046FFF7F2
:101A700061FE0028ECD02A460D212046FFF784FEA7
:101A80000028E5D10B4B1A684FF0004542F4806204
:101A9000FF201A601946DD625863CB6A054A002BA5
:101AA000FBDA936B13F0FF0FD2D12046FFF7B4FDA2
:101AB000012070BD00C00240014B024A1A6070470D
:101AC000FC42FF1F0320003838B590F90530002B89
:101AD00003DBBDE8384000F079B904460121006914
:101AE00000F0B4F9F8B1257D104B13EB45151AD071
:101AF000A3790F4A012B9CBFA369EB61E3691268CC
:101B00006B831B0CAB8232B105F1160105F1180095
:101B100090472B8B6B82637903F07F036371BDE881
:101B2000384000F053B9002038BD00BF1043FF1FFC
:101B30000443FF1F10B500F1080204460121006AAA
:101B400000F02CFA50B1E3693BB96379A268E26115
:101B500063F07F036371012010BD012010BD00BF41
:101B6000F8B5837913B182698A4201D20020F8BDA9
:101B7000022B0F4605461AD007B32B6AE9681C7C76
:101B80004A1E04F109037C1EDA40DC40A24211D94E
:101B9000EB69AB6005F1080606E0A968286A00F069
:101BA000C5F9013C0028E1D03246002CF5D1EF60A8
:101BB0000120F8BD0029EBD0A41AEBE7AF60EF607D
:101BC0000120F8BD2DE9F04F8B46817985B00129C0
:101BD0000746019205D001233B71002005B0BDE806
:101BE000F08F42799107F6D5530708D5FC68B9699B
:101BF0008C4200F0B480FFF7B3FF0028EBD0019BCC
:101C0000FC68002B4AD0DFF8A491DFF8A4A1DDF82E
:101C10000480386A0679013E06EA542616F0FF066B
:101C2000C4F3080443D1002C41D1B968002973D111
:101C3000FA69002A00F08380BA60C4F50075ADB27D
:101C400045453AD9057C4169023AAA400E441644FA
:101C50001FFA88F51CB9F868BA6990424FD230462D
:101C6000012100F0F3F80028B5D04C4404EB050E38
:101C700074450DD00BF1FF31621E0EF1FF3611F8E5
:101C8000010F02F8010F9642F9D1C4EB0E04A344F0
:101C9000FC68B8EB05082C44FC60BAD1BB69A342D0
:101CA00062D27A79BC6142F080027A7165E0C4F553
:101CB0000075ADB24545BA68C4D8017C4069023AA6
:101CC0008A400644B5F5007F1644C3D1DAF80020F7
:101CD000964204BF4FF0FF32CAF800202F4A106826
:101CE0000278FE2A314633D05A46FFF79FFE00287D
:101CF0003FF471AF0BF5007B4FF40075C8E700F0BF
:101D000065F800283FF467AF2549CAF800600A78F3
:101D100042F001020A70A8E703AA00F007F90028C0
:101D20003FF45CAF386A1F4B90F82050039A4FF68F
:101D3000F871102D18BF19468A42FFF47DAF38465E
:101D4000FFF7F8FE00283FF446AF386ABA6874E738
:101D50005846FFF7F9FBB0FA80F04009C7E7019B4E
:101D6000002B7FF450AF08E00F4B7A791B6823B14A
:101D7000019B13B142F080027A71120709D5BB7939
:101D8000002B3FF428AF3846FFF79EFE00283FF4B3
:101D900022AF019805B0BDE8F08F00BF0C43FF1FD4
:101DA0001045FF1FF8FFFF0F0443FF1F1043FF1FE5
:101DB000741DFF1F00B583B002AB012203F8011DA3
:101DC0001946FFF7FFFE03B05DF804FB70B51A4C2F
:101DD00023780BB9012070BD184D194B286819687C
:101DE0000378FE2B17D0174AFFF720FE88B1164E56
:101DF000316819B900232370012070BD2868037869
:101E0000FE2B0FD00F4AFFF711FE10B100233360F5
:101E1000F0E7002070BD0B48FFF796FBB0FA80F0AA
:101E20004009E3E70748FFF78FFBB0FA80F040096D
:101E30000028EBD1EDE700BF1045FF1F0C43FF1F4B
:101E4000741DFF1F1043FF1F0843FF1F70B5124D85
:101E50002B6883420E4611D00446FFF7B7FF08B93E
:101E6000002070BD0D4B18680378FE2B0CD00C4A77
:101E70002146FFF715FD0028F2D02C60094B197898
:101E800031431970012070BD21460548FFF7DAFA89
:101E9000B0FA80F04009EEE7741DFF1F0C43FF1FEE
:101EA0001043FF1F1045FF1FF8B590F82030C4699C
:101EB000102B1A4B05460E4617461B6816D004EB2E
:101EC000D1149C4216D106F07F06154A42F82670BE
:101ED0001449287E0A78012842F001020A7018D9B4
:101EE000A968114A0B4413600120F8BD04EB1124CA
:101EF0009C4208D000212046FFF7A8FF50B195F87A
:101F00002030102B07D1F6B2054A234622F816706E
:101F1000DEE70120F8BD2346D5E700BF741DFF1F93
:101F20001043FF1F1045FF1F0843FF1FC368013305
:101F30008B4218D370B590F82030102B154B044607
:101F400016460D46C0691B680FD000EBD1109842B1
:101F50000FD105F07F01104B53F8213023F070436F
:101F60003360012070BD0020704700EB11209842C3
:101F700007D00021FFF76AFF50B194F82030102BF2
:101F8000E7D1E9B2044B33F811303360012070BD62
:101F9000002070BD741DFF1F1043FF1F2DE9F04F7F
:101FA000176883B06FB301374FF0000AC36803F1BD
:101FB000010813B38B46064691463C46002505E0D2
:101FC0001C461F46F3680135AB4216D9A04538BF01
:101FD0000224214601AA304638BF2746FFF7A6FF54
:101FE000631CD91B48B1019A002AE9D18B4510D056
:101FF0001C46F3680135AB42E8D8002003B0BDE8C9
:10200000F08FA1F1010ABAFA8AFA07684FEA5A1A60
:10201000CCE7012CF1D9F36801339C42EDD86FF085
:10202000704221463046FFF73FFF0028E5D0A74227
:1020300014D2013C012CE0D9F36801339C42DCD876
:10204000621C21463046FFF72FFF0028D5D0A7425B
:1020500004F1FF3402D0012CEED1CEE7D9F8001004
:1020600059B10129C9D9F36801339942C5D83A4613
:102070003046FFF719FF0028BFD0C9F80070BAF149
:10208000000F01D0013737600120B7E790F8392001
:1020900090F83800101A704790F8383090F83920CE
:1020A0009A4205D95A1C034480F83820187E70479C
:1020B0004FF0FF30704700BF90F8383090F839206B
:1020C0009A4286BF1B18187E4FF0FF30704700BF42
:1020D000704700BF38B50546B0F85E0090B195F87E
:1020E0005D301446C3F1210294420CD805F13B0047
:1020F0001844224600F0CAF895F85D30234485F86C
:102100005D30204638BD012014462871EEE700BF3F
:10211000B0F85E306BB190F85D30202B07D8C21854
:10212000013380F85D30012082F83B1070470123B5
:1021300003710020704700BF38B50269D478E4B25B
:10214000E106054624D51023D37063061FD504F09D
:10215000040404F0FF03002C5AD042496A6E0023A5
:102160000B7085F85D30002A66D0904795F85D3099
:10217000002B61D02B69D0229A702B6995F83B20F7
:102180001A712B69012285F85C200222DA7038BDB1
:1021900004F0400303F0FF00002BD8D19379DBB2A9
:1021A00003F0600160294ED0937803F0100303F030
:1021B000FF01B3B114F0010437D195F85C3095F804
:1021C0005D1099424BD9591C2B4485F85C1093F84B
:1021D0003B3013712B69D0229A702B690222DA707E
:1021E000D5E785F86010937943F0200393712B694C
:1021F00095F839101A791F29D2B2C6D81948007833
:102200000028C2D06818013185F839100276BCE781
:102210002A6985F83930C02393702B69114A1979DE
:10222000012111700222DA70B1E7C02393702B698B
:102230001A790222DA70AAE70122002385F85D20CC
:1022400085F83B3096E703F0DF039371AB6E23B163
:1022500085F8380095F8390098472A69A4E7147181
:10226000B8E700BF1145FF1F0148FFF765BF00BF7A
:10227000E41DFF1F0148FFF75FBF00BF501EFF1F97
:102280000148FFF759BF00BF781DFF1F844641EA90
:10229000000313F003036DD1403A41D351F8043BDE
:1022A00040F8043B51F8043B40F8043B51F8043B30
:1022B00040F8043B51F8043B40F8043B51F8043B20
:1022C00040F8043B51F8043B40F8043B51F8043B10
:1022D00040F8043B51F8043B40F8043B51F8043B00
:1022E00040F8043B51F8043B40F8043B51F8043BF0
:1022F00040F8043B51F8043B40F8043B51F8043BE0
:1023000040F8043B51F8043B40F8043B51F8043BCF
:1023100040F8043B51F8043B40F8043B403ABDD23E
:10232000303211D351F8043B40F8043B51F8043BE0
:1023300040F8043B51F8043B40F8043B51F8043B9F
:1023400040F8043B103AEDD20C3205D351F8043B6F
:1023500040F8043B043AF9D2043208D0D2071CBF3B
:1023600011F8013B00F8013B01D30B880380604664
:10237000704700BF082A13D38B078DD010F00303DA
:102380008AD0C3F10403D21ADB071CBF11F8013B4A
:1023900000F8013B80D331F8023B20F8023B7BE799
:1023A000043AD9D3013A11F8013B00F8013BF9D2C4
:1023B0000B7803704B7843708B788370604670475E
:1023C000374A384913681B06FCD40B6813F08003A6
:1023D000F8D172B634490A78002A5FD0334A3448BB
:1023E000F0B4344C176806682568D4680C303E4455
:1023F000143200681268304F35442C4420440244A3
:10240000C2F34E022D4E2E482E4D2F4C42F4004268
:102410003A60376806682D682C4A24680C303E44C0
:10242000006812682A4F35442C4420440244C2F309
:102430004E02284E2848294D294C42F400423A6069
:10244000376806682D68274A24680C303E440068C7
:102450001268254F35442C4420440244C2F34E02F6
:10246000224E2348234D244C42F400423A60376800
:1024700006682D68214A24680C303E4400681268C2
:1024800035442C4420440244C2F34E021C4842F41A
:10249000004202600B7062B6F0BC704762B67047D3
:1024A00024B0034024B00B401345FF1F38B0034055
:1024B0003CB0034040B003402CB0034058B0034050
:1024C0005CB0034060B0034064B003406CB00340B4
:1024D00030B0034038B00B403CB00B4040B00B4034
:1024E00044B00B404CB00B402CB00B4058B00B40EC
:1024F0005CB00B4060B00B4064B00B406CB00B4064
:1025000030B00B4030B42948294A2A4B2A4D602468
:10251000E121047011701B78284C082B30D00A2B55
:102520002748284937D00C2B0CBF35225D221223B7
:102530002A60236002600B60234B24491B78244AE5
:10254000BBB101230B601360224B23491B78234A44
:10255000012B26D9042B0FD9082B1ED9102B94BF81
:10256000862387230B6013601D4B01221A7030BC39
:1025700070470B601360E7E784230B601360F3E799
:1025800000F58E200F490830212213232A60236092
:1025900002600B60D0E73922F7E785230B601360F8
:1025A000E2E780230B601360DEE700BF00400740D6
:1025B00001400740BC1EFF1F08B003400CB00340A1
:1025C00008B00B400CB00B401645FF1F20B0034075
:1025D00020B00B40BD1EFF1F24B0034024B00B40B1
:1025E0001345FF1F68B10E4A1378C3B90D49097826
:1025F0000120107019B10C490C4A0B601360FFF7F1
:1026000081BF074B1A7852B1064A18701378002B15
:10261000F5D0054A054B10601860FFF773BF70478F
:102620001645FF1F1345FF1F24B0034024B00B4085
:102630000C2830B417D91023984228BF18461C46DE
:10264000104A114D1178181A8C42287018D00F4971
:1026500013700B7823B10E490E4A00230B601360F0
:1026600030BCFFF74FBF0A2802D90C231C46E7E70E
:10267000082802D90A231C46E2E708231C46DFE7A4
:1026800030BC7047BC1EFF1F1245FF1F1345FF1FC4
:1026900024B0034024B00B4010B51A4B1B780446FD
:1026A000BBB9012C19D9042C174B18490AD9082C8D
:1026B00020D9102C17D907221A600A60144A202347
:1026C000137010BD04221A6013460A60104A13707A
:1026D00010BDFFF775FE012CE5D80B4A00231360EF
:1026E0000B4A137010BD06221A600A60084A1023B4
:1026F000137010BD05221A600A60054A0823137082
:1027000010BD00BF1345FF1F24B0034024B00B4091
:10271000BD1EFF1F47282FD8334B2DE9F0411E5C0B
:10272000FF2E2BD0314B1B78002B2AD132062CD414
:1027300072B62F4D2F4C2F46012326602B7062B6A8
:1027400072B623681B060CD43B781BB9F4E72B78D0
:10275000002BF1D062B601F0BFFF72B623681806F5
:10276000F5D5254B1B6800222A7062B6234A1078E3
:1027700043FA00F0BDE8F081002070470020BDE87A
:10278000F081FFF71DFE3206D2D572B61C4DDFF880
:102790007C801C4C06F04007FFB206F03F06D8F8DC
:1027A0000030DFB123F01003C8F8003001232660A9
:1027B000134A2B7062B672B6236819060CD41378CC
:1027C0001BB9ECE72B78002BE9D062B601F084FF4F
:1027D00072B623681B06F5D50B4BC3E743F0100315
:1027E000C8F80030E2E700BF347A00001345FF1F4D
:1027F0001545FF1F00B0034010B003401245FF1FF6
:102800001445FF1F00B00B4010B00B400CB00B4044
:1028100008B5104C08E0236859050DD423681A0543
:102820000FD42368DB0411D423685803F3D500F0D8
:10283000CBFA23685905F1D501F0E6FF23681A05A4
:10284000EFD502F077F82368DB04EDD502F008F944
:10285000EAE700BF3480044008B5FFF7D9FF00BFA6
:10286000014B10221A80704700200540704700BFBE
:10287000094908B50B6830B16A461844A2F5005200
:10288000904202D20860184608BD03F005FF0C23F1
:1028900003604FF0FF3008BDC01EFF1FFEE700BF02
:1028A000084A1378802B01D0002070470649074B57
:1028B00007480860002119701378802BFCD0012094
:1028C000704700BF03E007404480044001E0074038
:1028D00000002522094A1378012B01D000207047FF
:1028E00003F1804303F5FC23602119701378802BDA
:1028F000FCD1034B034A1A600120704703E00740F4
:10290000448004400000050210B4114B53F83020FD
:1029100092F8804234B1012379B182F880305DF8B9
:10292000044B704703EBC0035B681A6851B922F08F
:1029300002021A605DF8044B704782F800315DF8BE
:10294000044B704742F003021A605DF8044B704775
:102950007C7A00001C4A02EBC00301295B6811D09D
:1029600004291BD052F83000002280F8802229B1BF
:10297000022920D0032922D01A6070474FF48072B8
:102980001A60704752F830004FF4A27280F880123B
:102990001A601A6822F020021A60704752F830104C
:1029A0004FF4A272012081F880021A601A6842F086
:1029B00020021A60704740F203121A6070474FF409
:1029C00081721A60704700BF7C7A000030B4054BFA
:1029D000054D064C002210211A602A602060196003
:1029E00030BC704714D0034004D0034000D00340F3
:1029F0003F2801D8FFF788BF704700BF3F2801D8A4
:102A0000FFF7A8BF704700BF2DE9F843054672B62F
:102A1000214F224B224A1B683C68126862B6520161
:102A200002D5322B88BF0134A5B3C3F524333F331D
:102A30001C4EDFF86890DFF86880DB084FF47A728C
:102A4000A6FB031302FB04F404EB530472B6D9F89B
:102A500000103A68D8F800E062B6C1F524333F337D
:102A6000DB08A6FB03031EF0806FC4EB53034FF497
:102A70007A7002D0322988BF013200FB0233B3F5ED
:102A80007A7F04D3013D05D004F57A74DEE701F0C6
:102A900023FEDBE7BDE8F8831845FF1F18E000E0E0
:102AA00004ED00E019866118F8B54E4B4E48DFF88A
:102AB0005CC14E4C4E49DFF858E14E4E4E4D4F4FE3
:102AC0004FF000621A604FF080521A604FF00052CF
:102AD0001A604FF080421A604FF000421A600022E4
:102AE000026028234DF6FF70CCF80000CEF80030CD
:102AF00023600EF5012E0B6033602B6006F5002677
:102B00003B6005F50025A36207F500278B6204F5FD
:102B1000012401F5012106F6E87605F6E87507F5CA
:102B20007F6710310EF1100E203433602B60CEF829
:102B300000303B600B602360314CBB618B6109212D
:102B40002160A7F5002704F58054203F08343A603F
:102B50002060BB60E36047F8041C04F5FD2407F522
:102B6000FE27043704F2FC7422603860A360FB6027
:102B700044F8041C083404F6FC74C7F8FC2F2060E9
:102B8000A4F5E124A4F2DC7433602B60C7F8F81FCD
:102B900021681C4841F40071216001681A4C0EF54F
:102BA0007F4E0EF1E80E07F5883706F5803605F5FD
:102BB000803541F000710160CEF8002047F6FF71CA
:102BC0000822396033602B602260FFF79BFC1920DC
:102BD000FFF71AFF00F060FE40F21310BDE8F84066
:102BE000FFF712BF04E100E00480034014800340BB
:102BF0001C800340248003402C8003403480034029
:102C0000008003400480044000900C400880034092
:102C10000C800340431E032B14D872B60A4951F8A6
:102C2000230068B170B4094C058834F81320466855
:102C300041F82360521B24F8132062B670BC704721
:102C400062B67047002070477445FF1FFC49FF1FA4
:102C5000013803280BD872B6074B53F8203043B124
:102C600000205B680130002BFBD162B6704700206A
:102C700070471846F9E700BFC845FF1F30B472B669
:102C80002B4A13781D0706D52A4B196A002936D01E
:102C9000996A002941D053781C0706D5254B196C39
:102CA00000293ED0996C002939D09378190705D5B1
:102CB000204B196E002936D0996E89B1D3781B0745
:102CC00007D51C4BD3F880207AB3D3F88820112184
:102CD0003AB162B6184B00221A7030BC00F076BED2
:102CE0000D21154C154D227843F8315003EBC103EB
:102CF0000830013A5860227062B630BC7047042236
:102D00000D4C0F4D217843F8325003EBC2030830CD
:102D10004A1E5860227062B6EFE70521E1E70921FB
:102D2000DFE70822ECE70C22EAE71022E8E700BF21
:102D3000B47C00000000FF1FF145FF1FC8004000E9
:102D400088004000431E032B1DD81B4A400140F061
:102D5000100030B4104472B6184CE25C032A1BD841
:102D6000DFE802F00212151703220D88E25410F07A
:102D7000080F14BFC823882343EA054308310360C2
:102D8000416062B630BC704708300222EDE7052290
:102D9000EBE708300422E8E7094A52F8230038B18B
:102DA000084A52F82300416042F8231062B6E9E76E
:102DB00042F82310034AF7E70000FF1F0046FF1FF9
:102DC000C845FF1FD845FF1F2DE9F04FDFF80CB3B2
:102DD000DFF80CA387B044E0AB4F4FEA930807EB52
:102DE000C809013ED9F8042003F00803F6B2A2F1A5
:102DF000080003F0FF04002B40F0028157F8383040
:102E00001B0C99B222F8081C002B00F0F0809F4B9D
:102E100022F8064C42F8044C53F82620002A00F011
:102E2000C5829B4D55F8263058609A4C45F82600CF
:102E300034F81630194424F8161000F0A7FD0028C5
:102E400000F0AD82944A954B19F0080F00F108008C
:102E500018BF1346C9F8040047F8383008238BF828
:102E600000309BF80040E4B261071AD58C4B1B7808
:102E7000A3B18C490A7802F0FF0322B1013BDBB217
:102E80000B7003B900BE88490A7802F0FF032AB12B
:102E9000013BDBB20B70002B00F0578204238BF850
:102EA000003004F0080303F0FF02002B00F0CC8098
:102EB0009AF80030DBB21E098ED19C08DFF8C89169
:102EC00059F8342009EBC401C2F38302013A49687E
:102ED0000C2A00F28880DFE802F07C7C86868686F9
:102EE00086864786868607000868704D4A68704F58
:102EF000704E286081B240F28160674B6A604FF08B
:102F0000010E0022814249F834303A60C9F810209D
:102F1000C9F8182086F800E05B4C00F2E380B1F5B8
:102F2000D06F80F04683B1F5817F00F0FC8200F223
:102F30008D82802900F07783822940F0FA82A98867
:102F400001F07F01042900F2F4825B485B4C8900A8
:102F50000844227062700278930740F1588484F824
:102F600000E04FF0020E42E3514F3A6832B3544B47
:102F7000504E5449188834780D784028864645F0DC
:102F8000020828BF4FF0400E002C84F0010434707A
:102F9000CEEB00000CBF8824C82409EBC80680B221
:102FA00085F0010544EA0E447260188049F8384003
:102FB00072440D70002800F045813A603B4B1A883E
:102FC000B2F5A06F0FD100219A7859703E4B1A705C
:102FD00009E0364A108842F22102904200F037811F
:102FE0002D4A49F83420394A0123137036E72A4A1A
:102FF0002A4B19F0080F18BF134647F838302DE751
:1030000000F0E4FC324A334952F82630002B00F03D
:10301000D18158688C5D42F8260003F10802C9F896
:103020000420032C05D8DFE804F02C022926022214
:103030008A551A8819F0080F0CBF8823C82343EA61
:10304000024347F8383009E7E00700F181812106A3
:1030500000F1F281A20706D51F4A20491378022009
:10306000DBB213700870E30602D51C4B10221A70F5
:1030700007B0BDE8F08F04228A55DAE705228A55A9
:10308000D7E703228A55D4E70000FF1F7445FF1FCE
:103090002045FF1FFC49FF1FC8004000880040007A
:1030A000FC45FF1F8545FF1F0446FF1FE845FF1F26
:1030B0001C45FF1F8445FF1FC0200740F445FF1F2C
:1030C0003045FF1FF045FF1F982007409420074020
:1030D000C845FF1F0046FF1F88200740802007408B
:1030E0009020074042F22100814200F02A8100F244
:1030F000D880B1F5086F00F07682B1F5106F40F01E
:103100001882226AB349A8780870120600F13A833F
:10311000D9F82820B049130600F10C83D9F83020E3
:10312000AD49150600F10183D9F83820AA491406E3
:1031300000F1F682D9F84020A749100600F14A8331
:10314000D9F84820A449120600F13F83D9F850204D
:10315000A149130600F13483D9F858209E49150679
:1031600000F12983D9F860209B49140600F11E83E1
:10317000D9F868209849100600F11383D9F8702017
:103180009549120600F10883D9F878209249130670
:1031900000F1FD82D9F880208F49150600F13183B6
:1031A000D9F888208C49140600F12583D9F890209D
:1031B0008949100600F11983D9F89820864912062A
:1031C00000F10D838548864A864901908648874DDF
:1031D000874C049700230596029580460F461646B5
:1031E0001D460394306828B1446800F0EFFB204688
:1031F000002CF9D100233360029B38681A46002363
:1032000042F8253028B1446800F0E0FB2046002C4D
:10321000F9D100223A60019A98F800301146002254
:1032200041F8042B039A0191023B4FF0000122F870
:103230001510032B00F22B81DFE813F0700125013C
:1032400070012501BEF1400F18BF0022B5E6694AA2
:103250000D784878157050708D78C8789570D0705A
:1032600010680D79157186284D798979557191719C
:1032700000F09B816049614E0A78307882F0010548
:10328000002842F002020D700CBF8821C82149F8C5
:10329000321009EBC20280F0010000213070516051
:1032A0009EE642F22120814240F0CB81544B554CA6
:1032B0005549A8781D682560CDF804E00870002005
:1032C00002908046844604464B490D7845F0020E34
:1032D00009EBCE030393019B002B039B5C600CBFA7
:1032E0008824C82444EA080385F0010449F83E30E4
:1032F00032700C70DFF8E0E0404BDFF8FC80002813
:1033000040F01E81BCF1400F1BD144F0020C09EBD0
:10331000CC03029CDFF8C0E05C60002A40F026810C
:10332000020442F088029DF804304EF83C20044428
:1033300033700D702346402803D10020334A3B6090
:103340001080334A012313704DE600F0ABFCA5E575
:10335000214B2F4828491A614FF0020E80F800E0F7
:103360002C4F0A702C49196099602C4E2C4D2D4C15
:103370009A610D213970FF213170DFF8B8E02970B2
:103380002270294D294A8EF800109F27012406F843
:10339000047C5D600470DA6007B0BDE8F08F244AF9
:1033A00047F8380013780133137057E543F82600C7
:1033B0000E4D3AE58B5D032B00F2F08001A252F82E
:1033C00023F000BF5D2E00005D2E00008134000060
:1033D0007B340000FC45FF1F0000FF1FD845FF1F86
:1033E0007445FF1FC845FF1F0046FF1F2045FF1FF4
:1033F000FC49FF1F044AFF1FF045FF1F8445FF1FC4
:103400001845FF1F0C4AFF1F1446FF1F3045FF1FC2
:1034100094200740C02007408800400088200740D3
:1034200080200740982007403445FF1F8845FF1F34
:10343000F145FF1F8C200740C149C24B80220D205F
:1034400008701A70A2077FF50EAE05E640F2023250
:10345000914240F0EE80A98801F07F01042968D8EC
:103460006A88002A65D1B648CDF804E0890008448E
:10347000017841F00201017021E701238B55EDE451
:1034800000238B55EAE44FF0010388F80030013542
:10349000042D06F1040607F1040708F101087FF482
:1034A000A1AEA94CA94B2278A94D049F059E0021ED
:1034B00029701A70130700F105816278A549DFF8B9
:1034C000A0820A7010074FF00001C9F83010C9F847
:1034D000381000F1E080A049A2780A700021C9F8F4
:1034E0005010C9F858101107DFF8748200F10181FB
:1034F000E2789A499A4C0A7000211207C9F87010B4
:10350000C9F8781000F1B08033780193002183F07E
:103510000102C9F89010C9F89810D0E64FF00003E6
:1035200088F80030B3E7A98801F07F01042940F250
:103530008D80834A0F2313708A4A0123137052E54A
:1035400040287FF6E2AE44F002040EEBC401029E76
:103550004E60BAB19DF80410834A19703346403862
:1035600088F8005040334EF83420E7E69DF80430E8
:1035700033700204029B0D7042F0C80203444EF8FF
:103580003C20D8E69DF804101970029B774A88F811
:103590000050403840334EF83420CFE619F0080F81
:1035A0000CBF022303238B5558E4714A0F2111707D
:1035B00060E6704A5468002CBBD06888B5F804E017
:1035C00003E00C325468002CB3D013888342F8D146
:1035D00053887345F5D1000A03280CBF94F800E026
:1035E000B2F808E003E0644A644C12782270E8887C
:1035F000704580F03F8162490D784028844645F04F
:10360000020E28BF4FF0400C04EB0C0309EBCE0276
:10361000029301235460CCEB00004FEA0C480022D7
:103620000193C8245EE6554C4FF0020E2270627082
:10363000DDE7B1F5A06F7FF47CAF01230022019399
:103640003DE642F221329142F7D072E76A88002AC1
:103650007FF46FAF3A48CDF804E089000844017860
:1036600021F0020101702AE600F090F9002800F034
:10367000EF8008303D4AC4F88400C4F8802000F090
:1036800085F9002800F0DE800830374AC9F88C0040
:10369000C9F8882038E700F079F9002800F0C080E8
:1036A0000830324AC8F84400C8F8402000F06EF9EB
:1036B000002800F0AF8008302B4AC9F84C00C9F848
:1036C000482008E700F062F9002800F0CD800830BB
:1036D000264AC9F82400C9F8202000F057F900282C
:1036E00000F0BC800830204AC9F82C00C9F8282016
:1036F000E3E600F04BF9002800F09E8008301B4AFA
:10370000C8F86400C8F8602000F040F9002800F014
:103710008D800830144AC9F86C00C9F86820E7E6C3
:10372000C86B083800F052F904E5486B083800F01F
:103730004DF9F9E4C86A083800F048F9EEE400BF32
:10374000C020074080200740B47C0000C420074010
:10375000F145FF1FC8200740CC200740D02007407C
:103760000000FF1F94200740C80040008800400070
:103770008545FF1FB87C0000FC45FF1FF445FF1F77
:10378000F045FF1F606A083800F020F9C0E4C86FF8
:10379000083800F01BF9FDE4486F083800F016F90E
:1037A000F2E4C86E083800F011F9E7E4486E083812
:1037B00000F00CF9DCE4C86D083800F007F9D1E43A
:1037C000486D083800F002F9C6E4C86C083800F00B
:1037D000FDF8BBE4486C083800F0F8F8B0E4D1F824
:1037E0009C00083800F0F2F8ECE4D1F894000838B6
:1037F00000F0ECF8E0E4D1F88C00083800F0E6F8CE
:10380000D4E4D1F88400083800F0E0F8C8E44FF0C0
:10381000020EECE62A78C9F8480001322A705AE60E
:103820002A78C8F8400001322A703FE72A78C9F8A0
:10383000680001322A705BE62A78C8F8600001321D
:103840002A7061E72A78C9F8880001322A705BE69D
:103850002A78C4F8800001322A7010E72A78C9F863
:10386000280001322A7028E62A78C9F8200001329F
:103870002A7032E7BEF1400FF44628BF4FF0400CEB
:1038800004EB0C0302930123CCEB0E004FEA0C482F
:103890000022019318E500BF2DE9F04101F0C6FABE
:1038A0002F4C304B3048DFF8D880304F304D314E00
:1038B000DFF8D0C0DFF8D0E000221A605A609A60CA
:1038C000DA601A615A619A61DA611A625A629A621E
:1038D000DA621A635A639A63DA631A645A649A64FE
:1038E000DA641A655A659A65DA651A665A669A66DE
:1038F000DA661A675A679A67DA67C3F88020216820
:10390000C3F8842041F480212160016841F04071B6
:103910000160C3F3072188F8001004F52834C3F3CD
:1039200007411B0E3970CC342B7000F12040FF236F
:103930008CF80030104D8EF8003000F60410337013
:103940000E49012308F8083C702622704FF4001439
:10395000102207F82C3C2E7004600A70BDE8F0813C
:10396000348004400000FF1F00D80040B020074012
:10397000B42007401020074035E400E0082107404C
:103980009C200740802007408820074072B60D48E1
:103990000268B2FA82F30B2B10DC4FF00041D940E1
:1039A00022EA0102026062B6074803EBC303DB00B0
:1039B000C2180021C15010465160704762B6002005
:1039C000704700BFC41EFF1FD019FF1F0D4B0E4ACA
:1039D000C31AA2FB03231B090B2B0CD80B4A12782A
:1039E00052B972B60A484FF00041026821FA03F357
:1039F0001A43026062B67047064A1278002AF0D075
:103A0000FFF73CB9D019FF1F398EE338F145FF1F8E
:103A1000C41EFF1FFC45FF1F38B50F4D286878B145
:103A200043880288C118013393420C7A02D2438042
:103A3000204638BDFFF7CAFF002320462B6038BD63
:103A4000064B1B782BB10320FFF7E4F82860002811
:103A5000E6D14FF0FF3038BD1046FF1FFC45FF1F79
:103A600010B5094C206818B143881844007A10BD7D
:103A7000064B1B782BB10320FFF7CCF82060002801
:103A8000F2D14FF0FF3010BD1046FF1FFC45FF1F65
:103A9000044B054A1B6890881BB11A885B88D31AAF
:103AA000184470471046FF1FFC49FF1F0B4B1B7843
:103AB0009BB110B50A4C206848B1FFF787FF00237F
:103AC00003202360FFF7A6F830B1FFF77FFF032044
:103AD000FFF7A0F80028F8D110BD7047FC45FF1F84
:103AE0001046FF1F2DE9F04FDFF8F89083B0012258
:103AF00089F80020019169B3DFF8EC80354F019E11
:103B00008346D8F80000B0B3334D4488C4F1400177
:103B1000B14228BF314604EB010E00221FFA8EFE8F
:103B20002A70761AA0F802E000F1080251B1013CB7
:103B3000224459441BF8014B02F8014F8B45F9D13F
:103B4000B0F802E0BEF13F0F0BD8244A05211170F6
:103B5000002ED6D10198002389F8003003B0BDE8CB
:103B6000F08F4022028001460420FFF7EBF800228C
:103B7000C8F80020E9E73A7822B3194C164D4FF007
:103B8000010A07E0013C16D02A78A2B900F0A4FD92
:103B90003A78BAB10420FFF75BF80728F2D889F821
:103BA00000A0FFF7F3FEC8F800000028ADD10D4BD0
:103BB000013C1870E8D101234FF0FF302B7003B0A7
:103BC000BDE8F08F00234FF0FF3089F8003003B0DC
:103BD000BDE8F08FFC45FF1F0C46FF1F0446FF1F8A
:103BE000C92C01000546FF1F0846FF1F00B583B022
:103BF00002AB012103F8010D1846FFF773FF03B074
:103C00005DF804FB38B50E4D0E4C28680123237077
:103C100028B1408800232370C0F1400038BD0A4B12
:103C20001B7813B90020207038BD0420FFF710F86E
:103C30000728F7D8FFF7AAFE28600028E9D1F1E7A6
:103C40000846FF1F0546FF1FFC45FF1FF8B5114B37
:103C50001B788BB1104E114D346801272F7064B161
:103C60000F4A638800271770214623800420FFF73E
:103C700069F8376000232B70F8BDFFF787FE084B0B
:103C800028B1014604201C70FFF75CF8F2E71F70B2
:103C9000F0E700BFFC45FF1F0846FF1F0546FF1F5A
:103CA0000446FF1F38B50E4B1B7873B90D4C2168C5
:103CB00061B103F0FF054B880B800420FFF742F849
:103CC000256038BD084B01221A7038BDFFF75EFE33
:103CD0000028F7D00146BDE838400420FFF732B88D
:103CE0000546FF1F0846FF1F0446FF1FB1F5607F12
:103CF000F0B428BF4FF4607172B6134A134C144BE2
:103D000010600022228003F1700443F8042FA342C4
:103D1000FBD1B1B10F4E002301275D0903F01F0451
:103D200056F8252007FA04F4013322438B4246F863
:103D30002520F2D10023438001338B4200F58270AD
:103D4000F9D162B6F0BC70472046FF1F9A46FF1FAC
:103D50002446FF1F2846FF1FF0B472B6234F244E9F
:103D60003C8806F1700306EB8400984212D256F8A4
:103D7000241099B9021D06F17305631CAD1A03EBFB
:103D8000950503E052F8041B41B90133AB421C46D0
:103D90001046F7D162B60020F0BC7047B1FA81F34B
:103DA0004FF00042DA4021EA0201016001B901341A
:103DB00010493C800A88013294B20C8062B6801BA4
:103DC0008010C3EB401000EB801083000A480B49C1
:103DD000006803F5FB531C330125C5540D88AA4226
:103DE000184488BF0C80F0BC704700BF9A46FF1F84
:103DF0002846FF1F9C46FF1F2046FF1F1C46FF1F33
:103E0000428872B60378012B03D9013B037062B676
:103E10007047531170B40C4C0C4D54F823102E887D
:103E2000D2434FF0004002F01F0220FA02F2114389
:103E3000074A44F82310B34238BF2B801388013B54
:103E4000138062B670BC70472846FF1F9A46FF1F5A
:103E50009C46FF1FC368B3B130B401E0DB688BB18F
:103E6000187A9042FAD158685C7A006950F8245068
:103E7000002DF3D140F82410087801300870DB6879
:103E8000002BEDD130BC7047437A8B4206D90369D1
:103E9000002253F8210043F821207047002070478A
:103EA000037C23BB4368427A5B7A9A421FD830B4C2
:103EB00072B60468E3682BB3DA6832B119688C42D1
:103EC00016D01346DA68002AF8D1D8600023C36000
:103ED000A37A0133A37202684168012313728A7ABC
:103EE0001A448A7242681372037462B630BC704717
:103EF0005D6841688D42E4D1198903899942F4D003
:103F00001346DFE7E060E1E7037C4BB34368427AA6
:103F10005B7A9A4224D872B60268D36803B3984297
:103F200002D11EE0984202D0DB68002BFAD1436830
:103F3000427A1B69002143F822100268937A013B00
:103F4000937203689A7A02B91A724268937A013BB3
:103F5000937243689A7A02B91A720023037462B6A4
:103F60007047C368D360E2E7084B1A785AB908482B
:103F7000084910B4D0240470012210460A601A7057
:103F80005DF8044B70470020704700BF2446FF1FB8
:103F900040E400E008E100E01A491B4A1B48F8B57C
:103FA0000B681B4D046843F080730B60136843F08B
:103FB000010313602E6814B915E064699CB1237A7B
:103FC000002BFAD023682F681B68204698472B687F
:103FD000E188DB1B1B099AB28B42A28088BFE2807A
:103FE0006469002CEBD10A4B0A4A1B6810880A4C02
:103FF0009B1B1B0999B28342218001D91180F8BD16
:10400000F8BD00BFFCED00E0001000E01846FF1F07
:10401000041000E09846FF1F9E46FF1FF0B572B6E1
:1040200099B902688AB103790F2B0ED8284C2188E0
:1040300041FA03F5ED070AD503F1007303F5906328
:10404000B2EB431F03D162B6F0BD214C218800239F
:1040500041FA03F212F0010207D00133102BF7D11D
:1040600062B6002203710260F0BD01259D40294324
:10407000218062B6174E184D184FDFF868E0D9B2AC
:104080000171346844F0020434602C6844F0020486
:104090002C60A6F5802640F28244A5F5802503F128
:1040A00000733C6003F59063223E243D0C4C8EF877
:1040B00000105B0131702970217003601A605A6032
:1040C0009A60DA601A615A619A61DA61F0BD00BFE4
:1040D000A046FF1F408004403C8004400080004018
:1040E0001F8000401A80004003790F2B12D80A4A23
:1040F00010B4137072B6094904790A880123A340E9
:1041000022EA03030B8062B6102200235DF8044B01
:1041100002710360704700BF1A800040A046FF1F75
:1041200010B4EFF3108272B6437F33B9017F0129D7
:1041300008D0032910D00123437702B962B65DF895
:10414000044B7047114C2168A1B1114943610B68C0
:10415000836108605861EEE70E4C216881B10E4919
:1041600043610B688361086058610C4B4FF08051CC
:104170001960E0E7064B4161816120601860DAE771
:10418000054B4161816120601860EEE7B446FF1F76
:10419000B046FF1FA446FF1FA846FF1F04ED00E026
:1041A00070B5EFF3108272B60C4C206880B10C4EE3
:1041B00000254369236073B19D6102B962B64577FA
:1041C00083689847EFF3108272B620680028F0D118
:1041D00002B962B670BD3360EFE700BFA446FF1FAF
:1041E000A846FF1FFFF7DCBF184A30B41468002C44
:1041F00027D0036821688B420ED2CB1A002184603D
:10420000C1602360E06010600223037530BC70471A
:1042100011688B42144608D3A2685B1A0360002A17
:10422000F6D18260C460A060EEE7D268C2608460AC
:10423000E060C568CB1A0222A8602360027530BC1A
:1042400070478460C4601060DEE700BFAC46FF1FAB
:10425000F8B5224E34682CB32368002B3AD1204F96
:104260001D4604E03468ECB12368002B32D1A3680A
:1042700003B1DD6020693360036825751B68BB42AC
:1042800021D1037F4560022BC46020D0FFF748FF97
:104290006368002BE6D023602046FFF7A5FF346853
:1042A000002CE1D1EFF3108372B60E4A00211068A2
:1042B000116003B962B628B18468FFF795FF204604
:1042C0000028F9D1F8BD224600219847E0E783682D
:1042D0009847DDE7013B2360E4E700BFAC46FF1FE2
:1042E000ED110000BC46FF1F024A13680133136042
:1042F000FFF7AEBF1845FF1F704700BF0168A9B1A7
:104300000B4BF0B40B441B110A4E0B4F0B4D46F8F0
:10431000237003F1300202F01F0401235211A34065
:10432000002445F822308C600460F0BC704700BF68
:10433000008FFCBFC81EFF1FF942000080E100E0B3
:10434000024A034B012111601B6818470C7103409E
:10435000C81EFF1F024A034B012111605B6818470A
:104360001C710340C81EFF1F024A034B012111604C
:104370009B6818472C710340C81EFF1F024A034B5D
:1043800001211160DB6818473C710340C81EFF1F04
:1043900008B5FCF779F9FCF79FF800F09DF9FAE70A
:1043A00002F0A8B902F0AEB9F8B572B106460F46F0
:1043B00014460025336817F8011B1B6830469847E0
:1043C000013C0544F6D12846F8BD1546FBE700BF81
:1043D00000B5064A036812885B6883B001A9ADF88E
:1043E00004200222984703B05DF804FB7C7C0000A7
:1043F000F0B507468BB0002A33D0012A08BF0A2245
:1044000051B3212400E0F4B2B1FBF2F502FB151127
:10441000C8B2092900F1300198BFC8B20AA988BF03
:104420003730214488BFC0B201F8240C661E2946EB
:10443000002DE8D133B1013CE4B20AAB23442D2274
:1044400003F8242C3B6801AA11195B683846C4F1B3
:10445000220298470BB0F0BD30228DF82520212490
:10446000E8E70368C9B21B6898470BB0F0BD00BF0E
:104470002DE9F04357EC106B85B005460C4610EE65
:10448000102A3B4610EE100A394602F04BF800287D
:1044900040F0B28027F00049304649464FF0FF32E5
:1044A000594B02F03FF890B9304649464FF0FF3281
:1044B000554B02F019F850B92B6854495B682846EF
:1044C000032298478046404605B0BDE8F0834FF090
:1044D00060424F4B3046394602F01AF8002872D13C
:1044E0004FF060424B4B3046394601F0F3FF002855
:1044F00069D1002200233046394601F0EBFF002845
:1045000064D18146002C67D0434900204FF0000859
:104510003BA3D3E9002308F1010801F069FD5FFA2C
:1045200088F39C42F4D802460B463046394601F0E7
:10453000ADFB0F46064602F033F8804601F0E2FC80
:1045400002460B463046394601F09EFB4B46064676
:104550000F460A2241462846FFF74AFF0F2C28BF84
:104560000F2404F101092E2380465FFA89F98DF8A2
:10457000003001240022294B3046394601F038FD35
:104580000F46064602F00CF804AB2344C0B200F11B
:10459000300203F8102C01F0C5FC02460B463046F1
:1045A000394601F071FB0134E4B24C4506460F4632
:1045B000E0D12B6822465B6828466946984740460A
:1045C00005B0BDE8F0832B68154977E707F1004394
:1045D0001F464FF0010995E700220F4B3046394640
:1045E00001F054FB01F0DCFF4B4601460A2228464D
:1045F000FFF7FEFE804666E72B680A495EE700BFCC
:10460000000000A09999B93FFFFFEF7F887C000070
:10461000FFFFEF41FFFFEFC10000E03F000024403B
:10462000847C0000807C0000FFF740BAFFF70EBBDF
:10463000FFF7E8BA08461146FFF754BA0846FFF7F5
:10464000D5BA00BF704700BFF0B5164D2A680AB34F
:104650001549164BDFF85CE082FB016781FB021411
:10466000D617D1191444C6EB2141C6EB244403FBF1
:1046700004F40EFB112244F2A71303FB0243002BA8
:1046800002DA03F10043013BB3FBF0F22B6000FBC5
:104690001230F0BD064B2B60B3FBF0F200FB123082
:1046A000F0BD00BFC046FF1F5F0B4E83ECF4FFFF61
:1046B00042CE0C1F1DF3010008B1014B186070477A
:1046C000C046FF1F884206DA10B50446081AFFF7F5
:1046D000BBFF204410BD704738B52C4C237803B184
:1046E00038BD01232370FFF7D3F9002842D100F031
:1046F0007BF800283BD100F00DF9002834D100F000
:104700009FF970BB00F018FA40BB00F091FA10BBA3
:1047100000F00AFBE0B900232370EFF30583002BC0
:10472000DED1EFF3108172B6194B186828B3194C1B
:10473000227812BB45691D60012323700DB3AA6165
:1047400001B962B600254577836898472570C7E7A9
:1047500000F0B8FBDFE700F0B3FBD9E700F0AEFBF9
:10476000D3E700F0A9FBCDE700F0A4FBC7E700F01A
:104770009FFBC0E7FFF766FFB9E70029B0D162B63B
:1047800038BD054B1D600029DCD1DAE7C446FF1FA8
:10479000B446FF1FB846FF1FB046FF1FF0B44D1EC2
:1047A0002E46002400E00134B0FBF2F302FB1300BC
:1047B000092800F130078ABF3730F8B2C0B206F8D6
:1047C000010F1846002BEED10A1953704CB1107826
:1047D00015F8016F28700133E01A834202F801696D
:1047E000F5DB0846F0BC7047054A064B10781B788D
:1047F000C0B2DBB2984238BF4030C01A704700BF29
:10480000CC46FF1FCD46FF1FF0B4384B1A7912F08B
:10481000300F2CD072B6997D01F0FF0200293DD0F7
:1048200062B6334F334938780D78334E1C46C0B2E8
:10483000EDB2431C402BE17928BF0023AB4202F1CB
:10484000FF32C9B21CBFF154184612F0FF02F0D17A
:104850002A4B1B68C2B23A704BB1A84236BFC5F1B1
:104860004005401B40192728C4BF01221A701F4968
:10487000CA78D2B2150616D452060DD51B4B1B7939
:104880005B0609D51E4B1F491B6800220A7003B145
:104890001A70164B3C22DA70F0BC70474022D9796E
:1048A0005A7462B6E3E70B791C06E5D5164B174E32
:1048B0001C783378E4B2DBB29C420ED0144D01E098
:1048C000A3420AD00133402B28BF00230879E85CBB
:1048D000C0B2C871087D0728F2D9DBB20349337032
:1048E0000B79180644BF7C23CB70C5E700A00640B7
:1048F000CC46FF1FCD46FF1F1047FF1FC846FF1FB6
:104900005447FF1F5047FF1F5847FF1F5147FF1FC6
:10491000D046FF1F054A064B10781B78C0B2DBB2A9
:10492000984238BF4030C01A704700BFCC47FF1FC5
:104930006147FF1FF0B4384B1A7912F0300F2CD0BA
:1049400072B6997D01F0FF0200293DD062B6334F67
:10495000334938780D78334E1C46C0B2EDB2431C53
:10496000402BE17928BF0023AB4202F1FF32C9B2EC
:104970001CBFF154184612F0FF02F0D12A4B1B68FD
:10498000C2B23A704BB1A84236BFC5F14005401BD8
:1049900040192728C4BF01221A701F49CA78D2B211
:1049A000150616D452060DD51B4B1B795B0609D58F
:1049B0001E4B1F491B6800220A7003B11A70164B68
:1049C0003C22DA70F0BC70474022D9795A7462B642
:1049D000E3E70B791C06E5D5164B174E1C783378A8
:1049E000E4B2DBB29C420ED0144D01E0A3420AD0E7
:1049F0000133282B28BF00230879E85CC0B2C871B6
:104A0000087D0728F2D9DBB2034933700B79180609
:104A100044BF7C23CB70C5E700B00640CC47FF1FE6
:104A20006147FF1F8C47FF1F5C47FF1FD047FF1FD9
:104A30006047FF1FD447FF1FCD47FF1F6447FF1F7D
:104A4000054A064B10781B78C0B2DBB2984238BFDB
:104A50004030C01A704700BFDC47FF1FDD47FF1F13
:104A600030B42B4B1A7994061FD52A48DA7903788B
:104A7000294901333F2B0978C8BF00238B42D2B2AA
:104A800003D0264CD9B2E2540170254A116861B1B5
:104A9000244A1278D2B2934236BFC2F140029B1A26
:104AA0009B18272BC4BF01230B70194AD378DBB2A4
:104AB000180611D45A060DD5154B1B795B0609D57E
:104AC000194B1A491B6800220A7003B11A70104B67
:104AD0002C22DA7030BC704711790906EAD51449E6
:104AE00010480C780178C9B28C420DD04A1C272A94
:104AF00084BF00210A460F4D054C98BFD1B2AA5C75
:104B0000D2B2E2710170D5E76C21D170D2E700BF5B
:104B100000C00640DC47FF1FDD47FF1F0848FF1F9E
:104B2000D847FF1F4948FF1F4C48FF1F4848FF1F39
:104B30005048FF1FE047FF1F054A064B10781B78BF
:104B4000C0B2DBB2984238BF4030C01A704700BFD5
:104B50005848FF1F5948FF1F30B42B4B1A79940651
:104B60001FD52A48DA790378294901333F2B097880
:104B7000C8BF00238B42D2B203D0264CD9B2E25434
:104B80000170254A116861B1244A1278D2B2934269
:104B900036BFC2F140029B1A9B18272BC4BF0123CA
:104BA0000B70194AD378DBB2180611D45A060DD50A
:104BB000154B1B795B0609D5194B1A491B68002256
:104BC0000A7003B11A70104B2C22DA7030BC704797
:104BD00011790906EAD5144910480C780178C9B250
:104BE0008C420DD04A1C272A84BF00210A460F4D53
:104BF000054C98BFD1B2AA5CD2B2E2710170D5E780
:104C00006C21D170D2E700BF00D006405848FF1F8A
:104C10005948FF1F8448FF1F5448FF1FC548FF1F06
:104C2000C848FF1FC448FF1FCC48FF1F5C48FF1F38
:104C3000054A064B10781B78C0B2DBB2984238BFE9
:104C40004030C01A704700BFD448FF1FD548FF1F2F
:104C500030B42B4B1A7994061FD52A48DA79037899
:104C6000294901333F2B0978C8BF00238B42D2B2B8
:104C700003D0264CD9B2E2540170254A116861B1C3
:104C8000244A1278D2B2934236BFC2F140029B1A34
:104C90009B18272BC4BF01230B70194AD378DBB2B2
:104CA000180611D45A060DD5154B1B795B0609D58C
:104CB000194B1A491B6800220A7003B11A70104B75
:104CC0002C22DA7030BC704711790906EAD51449F4
:104CD00010480C780178C9B28C420DD04A1C272AA2
:104CE00084BF00210A460F4D054C98BFD1B2AA5C83
:104CF000D2B2E2710170D5E76C21D170D2E700BF6A
:104D000000A00E40D448FF1FD548FF1F0049FF1FD9
:104D1000D048FF1F4149FF1F4449FF1F4049FF1F63
:104D20004849FF1FD848FF1F054A064B10781B78DB
:104D3000C0B2DBB2984238BF4030C01A704700BFE3
:104D40005049FF1F5149FF1F30B42C4B5A68940241
:104D50001FD52B48DA6803782A4901333F2B09789D
:104D6000C8BF00238B4204D0274CD2B2D9B2E25440
:104D70000170264A116861B1254A1278D2B2934275
:104D800036BFC2F140029B1A9B18272BC4BF0123D8
:104D90000B701A4A9368180202D55268110211D496
:104DA0005A020DD5154B5B685B0209D5194B1A49A0
:104DB0001B6800220A7003B11A70184B00221A6097
:104DC00030BC7047164A124910780A78D2B2904225
:104DD0000DD00132272A84BF00200246114D074C16
:104DE00098BFD0B2AA5CD2B2E2600870D8E70E4891
:104DF0000A4A0024012104601160D1E700400C4000
:104E00005049FF1F5149FF1F7C49FF1F4C49FF1F9D
:104E1000BD49FF1FC049FF1FBC49FF1F5801884300
:104E2000C449FF1F5449FF1F5C01884310B584B07B
:104E300072B6FDF735FD184A184B194911607022FA
:104E400080211A701A46197013781B06FCD5154B71
:104E50001C68FDF73FFD62B6134B9C429CBF04EB00
:104E6000840464002046114C01A90A22FFF796FC35
:104E700001A92046002311F8012B01333AB10A2B76
:104E800020F8022FF7D11623237004B010BD5B0069
:104E9000DBB2237004B010BD0400024000000240E9
:104EA000000007410C0002407F969800741FFF1F0E
:104EB000704700BF704700BF704700BF704700BF1A
:104EC000704700BF704700BF2DE9F00F92B003EBB1
:104ED0004307019189081191119C0F90B8000F9F11
:104EE000089204EB4406DDF8449006900021DD00B2
:104EF00007EB86029B00089E0595049302940D46DD
:104F00000C460B4607EBC90B07EB8900DDF83C802C
:104F10005BF8039058F8037049F38D0A4FEAA9082B
:104F200047F38D0C4FEAA7071FFA8CFC4FEA17498D
:104F30001FFA8AF74FEA184A4CEA094947EA0A4831
:104F400099FA18F7D9FA18F950F803A052F803C0E3
:104F5000CDF80C904FEAAA084AF38D094CF38D0A5C
:104F60004FEAAC0C1FFA89F91FFA8AFA4FEA18487F
:104F70004FEA1C4C49EA08484AEA0C4C98FA1CFCD7
:104F800097FA2CF8DDF83C9049F80380D7FA1CF921
:104F9000375927FB09F847FB19F73F0C3F0447EA4D
:104FA000184750F803C0C750D7584CF38D094FEA43
:104FB000AC0847F38D0CBF101FFA89F91FFA8CFC5F
:104FC0003F0C4FEA184849EA08484CEA0747D8FA24
:104FD00017F9DDF80CC0ACFA19F7ECFA19F856F825
:104FE00005C02CFB08F94CFB18FC4FEA1C484FEAA3
:104FF000084C4CEA19484BF8038056F801C02CFBCA
:1050000007F84CFB17F73F0C3F0447EA1847D75007
:10501000059FDDF81090DDF818C0E419029F0433F5
:10502000013F4D44614402977FF470AFDDF8449036
:10503000B9F1040F40F29F80CDF80890049A0299CC
:10504000CDF840904C46A408671E0C970F9F0E9415
:1050500002EB42034FEA820B4FEA8408D20000259C
:105060009800C4EB84760B9207EB08038A00049542
:10507000CDF828B00D9009930695079505950392F4
:10508000E1004FEA86090898079D019E4759049D53
:10509000059B069C50F803B050F804C0AE4246D9B8
:1050A000099B2A4653F8090053F8085090FA15F462
:1050B000D0FA15F01D685E5895FA16F594FA25F6A3
:1050C00046F34E0A76101FFA8AFA360C4AEA06466A
:1050D00043F80960D4FA25F527FB05F647FB15F4DC
:1050E000250C2C0444EA16451E681D605C58D6FA4F
:1050F00014F5A0FA25F4E0FA25F62BFB06F54BFB98
:1051000016F0060C300440EA154643F808602CFB04
:1051100004F64CFB14F4250C2804029C40EA1645C6
:10512000019E03985D50121996420344BAD8049820
:10513000059CDDF828C0079F0B9A461C04EB0C0366
:105140000496BD18069E05930D98099B049ADDF8F8
:1051500030C007951F1D341862450694099792D9EF
:10516000109D0A9AA9080429109104D90E9802905A
:105170000446014667E7119E0F9C711E2068A468D3
:1051800001F0010690FA14F50F9A5368D26893FA69
:1051900012F995FA29F7DDF83C90C9F8007093FAF6
:1051A00012F7D5FA27F5C9F80450D0FA14FCD3FA4F
:1051B00012F3ECFA23F0C9F80800ACFA23F2C9F8AC
:1051C0000C2009F11003002959D0E6B11C689D6834
:1051D00094FA15F65A68D86892FA10FC96FA2CF7E9
:1051E0001F6092FA10F7D6FA27F65E60D4FA15F42B
:1051F000D2FA10FCE4FA2CF09860A4FA2CF2DA60EF
:10520000103301393BD01D689E6895FA16FC5A6828
:10521000D86892FA10F49CFA24F71F6092FA10F4FE
:10522000DCFA24F75F60D5FA16F4D2FA10F6E4FA45
:1052300026F29A60A4FA26F5DD609E691D6903F1E5
:1052400010024C1E95FA16F75969D86991FA10FCAC
:1052500097FA2CFCC3F810C091FA10FCD7FA2CF77F
:105260005760D5FA16FCD1FA10F3ECFA23F09060EF
:10527000ACFA23F1D160611E02F11003C3D112B068
:10528000BDE8F00F704700BF2DE9F00F92B003EBBF
:105290004307019189081191119C0F90B8000F9F4D
:1052A000089204EB4406DDF8449006900021DD00EE
:1052B00007EB86029B00089E0595049302940D4619
:1052C0000C460B4607EBC90B07EB8900DDF83C8069
:1052D0005BF8039058F8037049F38D0A4FEAA90868
:1052E00047F38D0C4FEAA7071FFA8CFC4FEA1749CA
:1052F0001FFA8AF74FEA184A4CEA094947EA0A486E
:1053000099FA18F7D9FA18F950F803A052F803C01F
:10531000CDF80C904FEAAA084AF38D094CF38D0A98
:105320004FEAAC0C1FFA89F91FFA8AFA4FEA1848BB
:105330004FEA1C4C49EA08484AEA0C4C98FA1CFC13
:1053400097FA2CF8DDF83C9049F80380D7FA1CF95D
:10535000375947FB09F827FB19F73F0C3F0447EA89
:10536000184750F803C0C750D7584CF38D094FEA7F
:10537000AC0847F38D0CBF101FFA89F91FFA8CFC9B
:105380003F0C4FEA184849EA08484CEA0747D8FA60
:1053900017F9DDF80CC0ECFA19F7ACFA19F856F861
:1053A00005C04CFB08F92CFB18FC4FEA1C484FEADF
:1053B000084C4CEA19484BF8038056F801C04CFBE6
:1053C00007F82CFB17F73F0C3F0447EA1847D75064
:1053D000059FDDF81090DDF818C0E419029F043332
:1053E000013F4D44614402977FF470AFDDF8449073
:1053F000B9F1040F40F29F80CDF80890049A029909
:10540000CDF840904C46A408671E0C970F9F0E9451
:1054100002EB42034FEA820B4FEA8408D2000025D8
:105420009800C4EB84760B9207EB08038A0004957E
:10543000CDF828B00D900993069507950595039230
:10544000E1004FEA86090898079D019E4759049D8F
:10545000059B069C50F803B050F804C0AE4246D9F4
:10546000099B2A4653F8090053F8085090FA15F49E
:10547000D0FA15F01D685E5895FA16F594FA25F6DF
:1054800046F34E0A76101FFA8AFA360C4AEA0646A6
:1054900043F80960D4FA25F547FB05F627FB15F418
:1054A000250C2C0444EA16451E681D605C58D6FA8B
:1054B00014F5E0FA25F4A0FA25F64BFB06F52BFBD4
:1054C00016F0060C300440EA154643F808604CFB21
:1054D00004F62CFB14F4250C2804029C40EA164523
:1054E000019E03985D50121996420344BAD804985D
:1054F000059CDDF828C0079F0B9A461C04EB0C03A3
:105500000496BD18069E05930D98099B049ADDF834
:1055100030C007951F1D341862450694099792D92B
:10552000109D0A9AA9080429109104D90E98029096
:105530000446014667E7119E0F9C711E2068A4680F
:1055400001F0010690FA14F50F9A5368D26893FAA5
:1055500012F995FA29F7DDF83C90C9F8007093FA32
:1055600012F7D5FA27F5C9F80450D0FA14FCD3FA8B
:1055700012F3ACFA23F0C9F80800ECFA23F2C9F8E8
:105580000C2009F11003002959D0E6B11C689D6870
:1055900094FA15F65A68D86892FA10FC96FA2CF725
:1055A0001F6092FA10F7D6FA27F65E60D4FA15F467
:1055B000D2FA10FCA4FA2CF09860E4FA2CF2DA602B
:1055C000103301393BD01D689E6895FA16FC5A6865
:1055D000D86892FA10F49CFA24F71F6092FA10F43B
:1055E000DCFA24F75F60D5FA16F4D2FA10F6A4FAC2
:1055F00026F29A60E4FA26F5DD609E691D6903F1E2
:1056000010024C1E95FA16F75969D86991FA10FCE8
:1056100097FA2CFCC3F810C091FA10FCD7FA2CF7BB
:105620005760D5FA16FCD1FA10F3ACFA23F090606B
:10563000ECFA23F1D160611E02F11003C3D112B064
:10564000BDE8F00F704700BF70B5837842680D4623
:10565000012B044601888389284605D0FFF734FCD6
:10566000E078012805D070BDFFF70EFEE078012834
:10567000F9D12188E289A3682846BDE8704000F08E
:1056800049B800BF10B41D4C0180B1F5807F446063
:105690008270C3702AD009D9B1F5806F18D0B1F5E6
:1056A000805F0ED0FF2040B210BC7047102916D08A
:1056B0004029F7D1124B4FF04011C16083600020A8
:1056C000F1E7104B4FF00111C16083600020EAE761
:1056D0000D4A4FF00413C36082600020E3E70B4AD9
:1056E0004FF00123C36082600020DCE708494FF0DF
:1056F0001012C26081600020D5E700BF8C7E0000E0
:105700000A6F01008C6E0100926E01008A70010028
:10571000AA6E01002DE9F00F84B049080191019CA7
:10572000019EDDF80480023C0021013614F0020FD6
:105730004FEA420B03940296024600EB88050F469F
:1057400059D029684268DDF80CC0416002272A6000
:10575000BC4519885B446CD3B94214D900EB81096C
:10576000DDF808808468D9F800A001EB080C00EB94
:105770008C08C0F808A0C9F80040EC68D8F80060B0
:10578000EE60C8F8004000F108020835DDF804803A
:1057900031E0B1420DD99668009650F821609660CC
:1057A000009A40F82120EA6850F82A60EE6040F83C
:1057B0002A2050F829106268616040F82920BCF85E
:1057C0000020029DBA42114615440ED9A66850F831
:1057D0002290C4F8089040F82260D8F80C2050F8C5
:1057E0002560C8F80C6040F8252008F10805DDF8B0
:1057F000048004F1080201EB0809566850F829A05A
:10580000DDF808C0C2F804A040F82960198801EB4F
:105810000809DDF80C80BE1CB71C01EB0C0AB04572
:1058200003EB0B0C02F1080405F108080CEB0B0369
:10583000AFD204B0BDE8F00F704700BFFFFFFFFF1D
:10584000F0B52DED048BB0EE409AF0EE609A3A4C34
:105850008BB000F079F894F90030B0EE408AF0EEA9
:10586000608A013338D0B0EE490AF0EE690A00F0E0
:10587000FDF988B32CA3D3E9002351EC190B00F0F8
:1058800047FE054680BB2AA3D3E9002351EC190B40
:1058900000F020FE00B394F90030284A0895002655
:1058A00000270421022B8DED049B8DED029BCDE999
:1058B00006678DE8060030D0684600F0DFF960B377
:1058C000089B1BB100F0E8FE089B03609DED060BF2
:1058D0000BB0BDEC048BF0BDB0EE480AF0EE680AE8
:1058E0000BB0BDEC048BF0BD144A94F9003001926A
:1058F000032100228DED049B8DED029B0091089207
:105900002BB90F4B4FF06042CDE90623D4E70D4988
:105910000020022BCDE90601CED100F0BDFE2223EE
:105920000360CDE7AFF30080EF39FAFE422E8640E8
:1059300051302DD5104987C08A1FFF1F8C7601007A
:10594000FFFFEF470000F07F2DE9F04F55EC104BC3
:10595000BD4925F000428A4283B04FEAD5770DD980
:10596000BA498A422AD9C5F31303234340F0FA8087
:105970000FB19FED9D0B03B0BDE8F08FB44B9A4281
:1059800000F2D580B34B9A4200F2EA8098A3D3E9A3
:10599000002310EE100A294600F078F90022AE4BE1
:1059A00000F0B6FD002800F01C81204629460022A8
:1059B000A94B00F06BF941EC100BDCE78EA3D3E9A7
:1059C000002310EE100A294600F0A2FD002840F046
:1059D000D3808BA3D3E900232046294600F07AFD2B
:1059E0000028C6D19D4E88A3D3E9002306EBC70645
:1059F0002046294600F0FCFAD6E9002300F046F9DB
:105A000000F0A6FD064600F08DFA81A3D3E900233D
:105A10008046894600F0ECFA02460B4620462946AD
:105A200000F032F97CA3D3E90023CDE90001404620
:105A3000494600F0DDFA82468B4652465B46DDE978
:105A4000000100F021F904460D4622462B4620466F
:105A5000294600F0CDFA72A3D3E900238046894697
:105A600000F0C6FA70A3D3E9002300F00DF9424616
:105A70004B4600F0BDFA6EA3D3E9002300F006F90F
:105A800042464B4600F0B4FA6BA3D3E9002300F082
:105A9000FBF842464B4600F0ABFA69A3D3E900237A
:105AA00000F0F4F842464B4600F0A2FA02460B46DC
:105AB0002046294600F0E8F880468946002E65D049
:105AC0002046294642464B4600F092FA424604469A
:105AD0000D464B4600204FF0804100F0D5F80246BD
