:1000000000000320D101000019410000D140000090
:10001000D1400000D1400000D1400000D14000009C
:10002000D1400000D1400000D14000001941000043
:1000300019410000D1400000A55A0000A95B000052
:100040001941000019410000194100001941000048
:100050001941000019410000194100001941000038
:100060001941000019410000194100001941000028
:100070001941000019410000194100001941000018
:100080001941000019410000194100001941000008
:1000900019410000194100001941000019410000F8
:1000A000293B0000353B00001941000019410000C8
:1000B000194100001941000019410000756100005C
:1000C00019410000A162000019410000CD63000049
:1000D00019410000C56400001941000019410000E9
:1000E00019410000194100001941000019410000A8
:1000F0001941000019410000194100001941000098
:10010000015C0000155C0000295C00003D5C000003
:100110001941000089460000194100001941000002
:100120001941000019410000194100001941000067
:100130001941000019410000194100001941000057
:100140005958000019410000BD6500001941000028
:100150001941000019410000194100001941000037
:100160001941000019410000413B00001941000005
:100170001941000019410000194100001941000017
:100180001941000019410000194100001941000007
:100190001941000019410000B56600001941000036
:1001A00019410000194100001941000019410000E7
:1001B00019410000194100001941000019410000D7
:1001C00019410000194100001941000019410000C7
:1001D0005C4B4CF2205210B51A804DF628121A8052
:1001E00000BF00BF03F09CFF574B4FF030621A6016
:1001F000564A9A60564ADA60564B4FF470021A60BB
:10020000554B564A1A60564A136813F4807304D14A
:1002100054490B604FF4A8531360534B1A781107DD
:1002200003D51A7842F008021A70504B5049AA229E
:100230001A70504A504B8B4204D252F8040F43F8C4
:10024000040BF8E74D4B4E4900228B4202D243F893
:10025000042BFAE74B494C4A002352F8230041F89B
:1002600023000133742BF8D1484B494A802103F80D
:10027000011B9342FBD1474B424A1A60464B8A22EC
:100280001A70A3F5805324225A70A0221A709A790A
:100290009207FCD59A79D406FCD4404A937903F0AE
:1002A0000C03082BFAD13E4B60221A7002331A78E5
:1002B000802AFCD1394B00221A7145225A719A7951
:1002C0009006FCD59979354A4906FBD5354B364918
:1002D00019600D21596020231370937903F00C03EA
:1002E0000C2BFAD1314B324A1A60324B324A1A6027
:1002F00000225A60072243F8042C304AC3F80C2D20
:1003000062B604F031F8174B1B68DA0705D52C48A4
:1003100003F0BCFF2B4B2C4A1A602C4B1B785B065E
:1003200009D5284C284B22689A4204D1244803F06E
:10033000ADFF0023236007F069FE03F0F7FE05F030
:1003400087FCFEE70E20054030800440823F040019
:100350000100002B88ED00E0002008E0030000858C
:1003600010D0034014D0034002D0074000E0074003
:10037000CC2DFF1FF49301003023FF1FCC2DFF1F56
:10038000CC3DFF1F001EFF1F0000000000E400E046
:1003900064E400E008ED00E0005006400040064044
:1003A00001E007404480044000000502048004404E
:1003B000C010050014E000E03F9002000000202083
:1003C0009732B25C1CE00340A5C3945A00F007408A
:1003D000FFFFFFFFFFFFFFFFFFFFFFFFFFFFFFFF2D
:1003E000FFFFFFFFFFFFFFFFFFFFFFFFFFFFFFFF1D
:1003F000FFFFFFFFFFFFFFFFFFFFFFFFFFFFFFFF0D
:10040000FFFFFFFFFFFFFFFFFFFFFFFFDEF9FFFF23
:1004100010B5054C237833B9044B13B10448AFF33E
:1004200000800123237010BDCC2DFF1F00000000B1
:10043000F8930100084B10B51BB108490848AFF309
:1004400000800848036803B910BD074B002BFBD0A0
:10045000BDE81040184700BF00000000D02DFF1F6E
:10046000F8930100CC2DFF1F0000000010B50446DA
:10047000006808B105F0F6FB204610BD10B5044633
:1004800005F09CFB204610BD10B5044605F09CF914
:10049000204610BD70B590E83000AC4206460DD045
:1004A000E36818460BB105F0DDFB236818341846E5
:1004B0000BB105F0D7FBA542F2D1356815B128463E
:1004C00005F0D0FB304670BD38B5054605F0E0FBC1
:1004D0000446284605F002FC204438BD38B50446E1
:1004E00008460D4608F08CFB2368024629465B68E7
:1004F000204698470546204605F0F0FB284438BDC5
:1005000008B502490248FFF7E9FF08BDE090000086
:10051000D824FF1F2DE9F041541AA610054688463D
:1005200008BF304605D0B6F1804F0DD2204605F009
:1005300097FB07192860AF601EB12246414603F0C1
:1005400005FB6F60BDE8F081FFF7DAFF08B5064CE8
:10055000064905460E22204605F0FCFC29462046A9
:10056000FFF7BCFF08BD00BFD824FF1FFC900000B0
:1005700008B50121152003F0A1FE0021142003F08D
:100580009DFE0121132003F099FE0021152003F0A8
:100590008FFE0121132003F08BFE0121102003F0B8
:1005A0008DFE00210F2003F089FE01210E2003F0B3
:1005B00085FE0021102003F07BFE01210E20BDE806
:1005C000084003F075BE00BF08B50121062003F006
:1005D00075FE0121072003F071FE0121082003F0C0
:1005E0006DFE0021062003F063FE0021072003F0CA
:1005F0005FFE00210820BDE8084003F059BE00BF9F
:1006000030B5364C85B040F6B831204603F0A8F836
:10061000204633494FF4E13203F07CF820460121B3
:1006200003F052F800284BD1012200212B4803F09F
:100630005FF919212B4804F0B9FFFFF7C5FFFFF759
:1006400097FF1721284804F0ADFE002008F07AFB40
:1006500001AC211A224805F091FB214805F03EFB30
:100660000023082001930293039305F0F9FA1F4A2F
:100670000190034603CA03F108021860596048203C
:100680000392029205F0ECFA022322460C21054661
:1006900001F068FD164B01981D6008B105F0E2FA03
:1006A0001621144804F07EFE002008F04BFB211AAE
:1006B0000B4805F063FB0A4805F010FB05B030BDA0
:1006C000606C0D49036811225B68984720460A2137
:1006D00002F0E8FF204603F01BF8A5E78038FF1F73
:1006E000D824FF1F0002FF1F20910000C0900000CF
:1006F0005835FF1F389100000C91000070B54B6811
:100700000D685D1B0022AB100E460446026042607D
:10071000826006D0B3F1804F15D2284605F0A0FACA
:1007200003461D44A5602360636096E822006D1AAD
:10073000AA0804D018462A4607F058FF03462B445F
:100740006360204670BDFFF7DBFE00BF2DE9F04F70
:100750002DED028BABB007F0B1FFF04C9FEDF08AAE
:1007600084FB0023C217C825C2EBA31305FB1303A8
:10077000643B07EE903AF8EEE77A0DF1600887EEF9
:10078000887A00268DED187A07F098FF84FB002305
:10079000C217C2EBA31305FB1303643B07EE903AA9
:1007A000F8EEE77A87EE887A8DED197A07F086FF02
:1007B00084FB0023C217C2EBA31305FB1303643BA6
:1007C00007EE903AF8EEE77A87EE887A8DED1A7A9E
:1007D00007F074FF84FB0023C217C2EBA31305FBD1
:1007E0001303643B07EE903AF8EEE77A87EE887AD7
:1007F0008DED1B7A07F062FF84FB0023C217C2EB6A
:10080000A31305FB1303643B07EE903AF8EEE77A77
:1008100087EE887A8DED1C7A07F050FF84FB002369
:10082000C217C2EBA31305FB1303643B07EE903A18
:10083000F8EEE77A87EE887A8DED1D7A07F03EFFB5
:1008400084FB0023C217C2EBA31305FB1303643B15
:1008500007EE903AF8EEE77A87EE887A8DED1E7A09
:1008600007F02CFF84FB0023C217C2EBA31305FB88
:100870001303643B07EE903AF8EEE77A87EE887A46
:100880008DED1F7A07F01AFF84FB0023C217C2EB1D
:10089000A31305FB1303643B07EE903AF8EEE77AE7
:1008A00087EE887A8DED207A07F008FF84FB00231D
:1008B000C217C2EBA31305FB1303643B07EE903A88
:1008C000F8EEE77A87EE887A8DED217A07F0F6FE6A
:1008D00084FB0023C217C2EBA31305FB1303643B85
:1008E00007EE903AF8EEE77A87EE887A8DED227A75
:1008F00007F0E4FE84FB0034C317C3EBA41405FB2C
:100900001405643D07EE905AF8EEE77A414687EE0B
:10091000887A24AA0CA80C960D960E968DED237A53
:10092000FFF7F8FD7F4A1296A2F1080112A813966C
:100930001496FFF7EFFD0CA906A8FFF7DFFE12A93A
:1009400009A8FFF7DBFE129808B105F08BF90C98A7
:1009500008B105F087F907F0B1FE704C9FED708A81
:1009600084FB0023C217C825C2EBA31305FB1303A6
:10097000643B07EE903AF8EEE77A002687EE887A35
:100980008DED187A07F09AFE84FB0023C217C2EBA4
:10099000A31305FB1303643B07EE903AF8EEE77AE6
:1009A00087EE887A8DED197A07F088FE84FB0023A4
:1009B000C217C2EBA31305FB1303643B07EE903A87
:1009C000F8EEE77A87EE887A8DED1A7A07F076FEF0
:1009D00084FB0023C217C2EBA31305FB1303643B84
:1009E00007EE903AF8EEE77A87EE887A8DED1B7A7B
:1009F00007F064FE84FB0023C217C2EBA31305FBC0
:100A00001303643B07EE903AF8EEE77A87EE887AB4
:100A10008DED1C7A07F052FE84FB0023C217C2EB57
:100A2000A31305FB1303643B07EE903AF8EEE77A55
:100A300087EE887A8DED1D7A07F040FE84FB002357
:100A4000C217C2EBA31305FB1303643B07EE903AF6
:100A5000F8EEE77A87EE887A8DED1E7A07F02EFEA3
:100A600084FB0023C217C2EBA31305FB1303643BF3
:100A700007EE903AF8EEE77A87EE887A8DED1F7AE6
:100A800007F01CFE84FB0023C217C2EBA31305FB77
:100A90001303643B07EE903AF8EEE77A87EE887A24
:100AA0008DED207A07F00AFE84FB0023C217C2EB0B
:100AB000A31305FB1303643B07EE903AF8EEE77AC5
:100AC00087EE887A8DED217A07F0F8FD84FB00230C
:100AD000C217C2EBA31305FB1303643B07EE903A66
:100AE000F8EEE77A87EE887A8DED227A07F0E6FD58
:100AF00084FB0034C317C3EBA41405FB1405643D49
:100B000007EE905AF8EEE77A03A887EE887A24AACF
:100B1000414603960496059606E000BF1F85EB51FB
:100B20000000C842D09000008DED237AFFF7F2FC60
:100B3000D14A1296A2F1080112A813961496FFF753
:100B4000E9FC03A90CA8FFF7D9FD0FA812A9FFF72C
:100B5000D5FD129808B105F085F8039808B105F0A5
:100B600081F807F0ABFDC54C9FEDC58A84FB0023DF
:100B7000C217C825C2EBA31305FB1303643B07EEA2
:100B8000903AF8EEE77A002687EE887A8DED187AAB
:100B900007F094FD84FB0023C217C2EBA31305FBEF
:100BA0001303643B07EE903AF8EEE77A87EE887A13
:100BB0008DED197A07F082FD84FB0023C217C2EB8A
:100BC000A31305FB1303643B07EE903AF8EEE77AB4
:100BD00087EE887A8DED1A7A07F070FD84FB00238A
:100BE000C217C2EBA31305FB1303643B07EE903A55
:100BF000F8EEE77A87EE887A8DED1B7A07F05EFDD6
:100C000084FB0023C217C2EBA31305FB1303643B51
:100C100007EE903AF8EEE77A87EE887A8DED1C7A47
:100C200007F04CFD84FB0023C217C2EBA31305FBA6
:100C30001303643B07EE903AF8EEE77A87EE887A82
:100C40008DED1D7A07F03AFD84FB0023C217C2EB3D
:100C5000A31305FB1303643B07EE903AF8EEE77A23
:100C600087EE887A8DED1E7A07F028FD84FB00233D
:100C7000C217C2EBA31305FB1303643B07EE903AC4
:100C8000F8EEE77A87EE887A8DED1F7A07F016FD89
:100C900084FB0023C217C2EBA31305FB1303643BC1
:100CA00007EE903AF8EEE77A87EE887A8DED207AB3
:100CB00007F004FD84FB0023C217C2EBA31305FB5E
:100CC0001303643B07EE903AF8EEE77A87EE887AF2
:100CD0008DED217A07F0F2FC84FB0023C217C2EBF2
:100CE000A31305FB1303643B07EE903AF8EEE77A93
:100CF00087EE887A8DED227A07F0E0FC84FB0034E1
:100D0000C317C3EBA41405FB1405643D07EE905A0A
:100D1000F8EEE77A684687EE887A24AA414600967C
:100D2000019602968DED237AFFF7F4FB554A039660
:100D3000A2F1080103A804960596FFF7EBFB6946AC
:100D400012A8FFF7DBFC03A915A8FFF7D7FC03984F
:100D500008B104F087FF009808B104F083FF06A9EA
:100D60004046FFF7CBFC09A91BA8FFF7C7FC0CA95D
:100D70001EA8FFF7C3FC0FA921A8FFF7BFFC12A90B
:100D800024A8FFF7BBFC15A927A8FFF7B7FC48204C
:100D900004F066FF1EAC074600F1180600F1600A79
:100DA0004FF0000954E0B0F1804F80F0D8805846F1
:100DB00004F056FF54F8181C54F8145C6D1A0346DE
:100DC000A81003EB0B0246F8102C46F8183C46F826
:100DD000143C20B118462A4607F008FC034654F894
:100DE0000C1C54F8082C46F80C9CC1EB020B2B444D
:100DF0005FEAAB0046F8143C46F8089C46F8049CB1
:100E000000F0AA80B0F1804F80F0A980584604F02D
:100E100027FF54F80C1C54F8085C6D1A0346A81000
:100E200003EB0B0246F8042C46F80C3C46F8083C51
:100E300020B118462A4607F0D9FB03462B4446F852
:100E4000083C06F118039A4504F118041CD01E460C
:100E5000182EF6D054F8181C54F8143C46F8189C78
:100E6000C1EB030B5FEAAB0046F8149C46F8109CFC
:100E700099D103465D46A4E7D89000001F85EB5149
:100E80000000C842E09000002AAC183CE06808B1BD
:100E900004F0E8FE206808B104F0E4FE4445F4D113
:100EA000304DDFF8D4904FF0000AA9FB0A346408F3
:100EB00004EB4404C4EB0A0404EB440407EBC4044D
:100EC00021462868DFF8B0B000F07EF9286800F00D
:100ED000D5F92146286800F049FA0AF1010A286884
:100EE00000F0BCFBBAF5167FDFD11F49404605F084
:100EF0007BF841461D48FFF7E7FA404605F034F815
:100F00001B49404605F070F841461848FFF7DCFAE7
:100F1000404605F029F81749404605F065F8414676
:100F20001248FFF7D1FA404605F01EF8F31BDB101C
:100F30000BFB03F47CB100263946286800F044F925
:100F4000286800F09BF90136286800F043FAA642B1
:100F500007F11807F0D1FEE703465D4660E7FFF7AB
:100F6000CFFA00BF5835FF1F50910000D824FF1F53
:100F70006C91000088910000ABAAAAAA484B494A8C
:100F800049492DE9F041002418461C605C609C60D2
:100F900007F02AF8454F464A3C603846A2F108015E
:100FA0007C60BC60434E444DFFF7B4FA38463D4A7E
:100FB0004249434F07F018F832686C722C612C726A
:100FC000EC602F600AB967E01A465369002BFBD129
:100FD00055613C4C3C4B2B604FF000081120C5F88C
:100FE0001480A5F80480A5F8068085F80A8001F031
:100FF00093FA012004F2247227604346414684F8A4
:101000000880C4F80C8060722261274600E03A69CB
:1010100042F82310627A2B4801339A42F7DC326897
:10102000244B0AB93AE01A465369002BFBD15461AC
:101030000026264F264B274966613246A680E68069
:10104000A6722360C4F8181101234FF4807122485E
:1010500084F8216784F8226705F0CAFF0823384620
:1010600084F82037C4F81C617C603E723D607E725B
:10107000FE603E7404F074FB38460A4A174906F0D5
:10108000B3FF174B074A1E6080241C711549184690
:10109000BDE8F04106F0A8BF35609AE71860C7E7E1
:1010A000E82DFF1F3023FF1F950400003435FF1F7C
:1010B000C0900000D439FF1F4035FF1F6D040000B1
:1010C000B4900000F42DFF1F149500005C35FF1F45
:1010D00008950000009300001C35FF1F89040000E4
:1010E0002C35FF1F7D0400002DE9F84FD0F8189033
:1010F000D0F81CA0D1452DED028B27D0164E9FEDC8
:10110000178AC82599E8800147451BD0D7F800B059
:101110007C68A34513D007F0D1FA86FB0032C317D1
:10112000C3EBA21305FB1300643807EE900AF8EE38
:10113000E77A87EE887AABEC017A5C45EBD10C3725
:10114000B845E3D109F10C09CA45DBD1BDEC028BEE
:101150000020BDE8F88F00BF1F85EB510000C8429A
:101160002DE9F843476AD0F8288047452DED028BDA
:1011700020D0134E9FED138AD7F800907C684C4521
:1011800018BFC82513D007F099FA86FB0032C317A1
:10119000C3EBA21305FB1300643807EE900AF8EEC8
:1011A000E77A87EE887AA9EC017A4C45EBD10C37C7
:1011B000B845E1D1BDEC028B0020BDE8F88300BF4B
:1011C0001F85EB510000C84270B504680B684D687C
:1011D00014CCA41AA610ED1AB6EBA50F86B00CD14C
:1011E000002EC8BF181905DD53F8041B42F8041B74
:1011F0009842F9D1002006B070BD05460C4602A801
:101200001A4904F0F1FE2968636891E80500216835
:10121000121A5B1A92109B1008200192009304F09E
:101220001FFD6B46064603CB3060716010481946BF
:1012300004F02EFD06F10805344654F8041B0C4852
:1012400004F09CFD02210B4804F0ACF8AC42F4D150
:101250000121094804F0A6F8304604F003FD02A875
:1012600004F082FE4FF0FF30C5E700BFBC910000E4
:10127000D824FF1FF49100001C910000036842680D
:1012800038492DE9F047C3EB02084FEAA80401FBF7
:1012900004F101292DED028B5ADD06464FF00C09B1
:1012A000B7EE008A03EB090253F809705268D21BAB
:1012B000920848D0A9F10C0500245A195B595168CD
:1012C000CA1A92084AD0B269DFED277A505904EB66
:1012D000440250F82220F3EC016AB2EC017A994200
:1012E000E6EE877AF7D1726AF36852595B594FEA92
:1012F000840A524492ED007A77EE877A5344C3ED24
:10130000007AF1EE677A17EE900A06F0D1FA41EC16
:10131000100B05F049FF51EC100B06F015FE07EE1F
:10132000900A37EE887A3368C8EE077A03EB090231
:10133000BA44526853F809700134D21BB4EBA20FBF
:10134000CAED007AB9D309F10C09C845AAD172686F
:10135000BDEC028BA2F10C00BDE8F087DFED027A54
:10136000C1E700BFABAAAAAA0000000038B54468D4
:10137000CA6854F80C3C54F8084C0D69E11A8910FD
:10138000AD1AB1EBA50F11D1002919DDC16B9FED8D
:101390000E0AF3EC017AB2EC017A77EEC77A9C423E
:1013A000E1EC017A30EE270AF3D138BD3421074849
:1013B00003F0F8FF064804F091FCBFEE000A38BDC8
:1013C0009FED010A38BD00BF00000000F891000049
:1013D000D824FF1F38B504461F21104803F0E2FF50
:1013E000636853F80C4C53F8085CAC420FD054F8C7
:1013F000040B06F05DFA41EC100B0221084804F0E2
:10140000C7FC0321074803F0CDFFA542EFD101211E
:101410000548BDE8384003F0C5BF00BF309200006A
:10142000D824FF1F4C9200001C910000E1B12DE96F
:10143000F84347688368564ADB1B9B1002FB03F3A3
:10144000994212D80A463B46002413B11C605C60E6
:101450009C60013A03F10C03F7D101EB410107EB6A
:1014600081014160BDE8F883704703680546F81ABA
:1014700088468010474902FB00F20C46891A8845CD
:1014800000F2838090452CBF02EB08069618B2420A
:101490006DD96FF00306304604F0E2FBD5F80090FA
:1014A000696807460644494568D009F10C023A4B81
:1014B000891A890803FB01F121F0404E0EEB4E031F
:1014C00009EB830909F1180907F10C0300240C2B1F
:1014D0001BD043F8084C43F8044C43F80C4C52F82A
:1014E0000C1C43F80C1C42F80C4C52F8081C53F826
:1014F000080C43F8081C42F8080C52F8041C53F876
:10150000040C43F8041C42F8040C0C324A4503F165
:101510000C03DCD10EF1010E95E810020EEB4E0E1D
:1015200007EB8E0003464146002213B11A605A6051
:101530009A60013903F10C03F7D108EB4808A14583
:1015400000EB880808D0206808B104F08BFB0C344D
:101550004C45F8D1D5F80090B9F1000F02D04846BB
:1015600004F080FB85E88001AE60BDE8F883A64208
:101570008FD836B939469946374694E74C463846AF
:10158000D0E706EB4606B60085E70448FEF7DEFF27
:10159000ABAAAAAA55555515ABAAAA2A5092000083
:1015A00099B12DE9F843456883685B1BB1EBA30F44
:1015B0000CD800240B462A46013B42F8044BFBD1D1
:1015C00005EB81014160BDE8F88370470268AD1A00
:1015D0000C46AB106FF04041C91A8C42064638D811
:1015E0009C422CBF1F19DF18BB4223D96FF00307A1
:1015F000384604F035FBD6F800807568C8EB050561
:1016000081460744AB10E3B94D4400202A462346E7
:10161000013B42F8040BFBD105EB8405B8F1000F48
:1016200002D0404604F01EFBC6F800907560B7601B
:10163000BDE8F883B7F1804FD8D247B99046B94694
:10164000E1E72A464146484606F0D0FFDCE7BF0006
:10165000CEE70148FEF77AFF509200002DE9F04FE7
:10166000C36B026C2DED068BD21A92088FB08246A6
:1016700000F01D82426BDFEDD59A52F80C7CD44D00
:1016800000242646B7EE009ADAF8102052F80C2C07
:1016900022442344106893ED008A80F0004006F055
:1016A00007F941EC100B05F07FFDDAF8103053F824
:1016B0000C3C234459EC108B186880F0004006F075
:1016C000F7F841EC100B05F06FFD51EC100B06F034
:1016D0003BFC07EE900A37EE897A4046C9EE077A5E
:1016E000494607EB040879EE678A06F02DFC07EE01
:1016F000900A37EE897ADAF81C30DAF8282053F8A5
:101700000C0CDAF834E052F80C2C5EF80C7CC9EEC4
:10171000077A04EB440300EB030C2244C358DCF8C3
:1017200004003919C3EB000C68EEA77A67EE887ADB
:1017300067EEA97AC8ED007A92ED007AD1ED007AD1
:1017400077EE677AC2ED007A5FEA9C0219D0DAF888
:1017500000C0DAF80420CCEB0202921005FB02F282
:10176000023A02EB42025CF82220B2EC017AD1ED9F
:10177000006AD3ED007AE6EEC77AE3EC017A98428C
:10178000F3D1DAF83C30DAF840200136D21AB6EB61
:10179000A20F04F10404FFF477AF7346DAF83020A7
:1017A0008B499B1A9A1001FB02F2023A059200F152
:1017B00007810C3B9FED859A02930391DAF818306C
:1017C000029A9F189A587B689A424FF0000300F0E3
:1017D0006B810A930B930C930CCA9B1A991040F0DF
:1017E00036810B463E687D68039A0693AD1BAD10AB
:1017F00002FB05F11C46C1B18D00002096E8820075
:101800007F1ABF100CD007EB4707BF000023E25838
:1018100051F804EB02440C33BB42C2F800E0F6D1AD
:101820000430A84206F10C06E8D1029BA3F10C0794
:1018300004EB070BE259DBF804309B1A9B0875D0C8
:101840000023264698460794DAF83050029A7368C7
:10185000A958306805EB0209C0EB030ED9F8042043
:10186000EB59C1EB020C4FEA88044FEAAC0C23445D
:10187000BCEBAE0F019340F0AF80BCF1000F40F322
:10188000E380DFED547AF1EC016AB0EC017A8A4230
:10189000E6EE877AF7D1F0EE678ADAF80C30DB599A
:1018A0002344F7EE009A186880F0004006F000F834
:1018B00041EC100B05F078FCDAF80C30B0EE40AAE1
:1018C000F0EE60AADB591C4408F10108206880F0A2
:1018D000004005F0EDFF41EC100B05F065FC51EC0C
:1018E000100B06F031FB07EE900A37EEA97A51ECA7
:1018F0001A0BC9EE877A0C3639EEE78A06F024FB1C
:1019000007EE900A37EEA97A9BE80C00C9EE877AB9
:101910009B1A019AB8EBA30F68EE277A67EEA87AB4
:1019200067EE897AC2ED007A8ED3079CDAF8183018
:10193000DA19DD595368039A5B1B9B1002FB03F312
:101940003BB3DAF83010DAF82420C959D65901EB44
:10195000830EF1EC017A96ED007A2B68686877EED9
:10196000677AC21A9208E6EC017A0ED0DAF8002003
:10197000D259B2EC017A51ED016AD3ED007AE6EE6C
:10198000C77AE3EC017A8342F3D1714505F10C0586
:10199000DFD1069EA64208D025462B680C35184696
:1019A0000BB104F05FF9B542F7D114B1204604F051
:1019B00059F9059B0297013B059301337FF4FEAE75
:1019C00000200FB0BDEC068BBDE8F08FCDCCCC3E37
:1019D000ABAAAAAA0000000037490AA804F004FB39
:1019E000029BD9F80420E85896E80A00121A5B1AFC
:1019F00092109B1008200892099304F031F908AB6B
:101A00000546049003CB286069602C480AA904F0BD
:101A10003FF92A469146083559F8041B274804F037
:101A2000ADF90221264803F0BDFCA945F4D10121FE
:101A30002448DFED258A03F0B5FC049804F012F980
:101A40000AA804F091FA28E7DFED1F8A25E70AA823
:101A5000FFF7ECFC0A9CDDF82C80444529D03E6859
:101A60007868801B0BE007D2626078683E68039B51
:101A7000801B811003FB01F10C34444510D094E825
:101A80000C00039D9B1A811005FB01F19B109942EC
:101A900002EB8102E7D9C91A2046FFF781FDE4E78E
:101AA0000B9B06930A9CA6E606931C46BDE6436B79
:101AB00074E6234696E600BF6C920000D824FF1F10
:101AC000F49100001C910000000000002DE9F04F8F
:101AD00005464068AB68984283B017460E4611D061
:101AE000034650F8042C43F8042B021F521A6B6073
:101AF000930802D0801A06F079FD3B68336003B08A
:101B0000BDE8F08F2B68C21A921004462ED0510007
:101B10008A423DD9C3EB060A6FF00308404604F041
:101B20009FF8D5F800906C6800EB0803834601939A
:101B3000C9EB06083B681BEB0A0F18BF4BF80A30CD
:101B40005FEA98031ED1A41B08F10408A308D84437
:101B500012D14444B9F1000F02D0484604F082F893
:101B6000019BC5F800B06C60AB60C8E7C3EB010A2D
:101B700001214FEA8108D1E731462246404601F073
:101B8000E5FFE6E742464946584606F02FFDDAE70C
:101B9000B1F1804FBED2C3EB060A0029E9D1019111
:101BA00099468B46D046C5E7F1B12DE9F04F8368E1
:101BB0004768654ADB1B9B1002FB03F3994283B025
:101BC0000C4612D83B46002213B11A605A609A6044
:101BD000013C03F10C03F7D101EB410107EB81015B
:101BE000416003B0BDE8F08F7047036857498046F5
:101BF000F81A801002FB00F20D46891A8C4200F29E
:101C00009A8094422CBF111991188A4240F289801F
:101C10006FF0030A504604F023F898E888008346E2
:101C20008244BB4200F0848003F10C02BE1A484992
:101C3000B60801FB06F626F0404606EB460503EB28
:101C4000850303F1180500200BF10C030C2B1BD0AE
:101C500043F8080C43F8040C43F80C0C52F80C1C25
:101C600043F80C1C42F80C0C52F8081C53F8087C82
:101C700043F8081C42F8087C52F8041C53F8047C12
:101C800043F8041C42F8047C0C32AA4203F10C0312
:101C9000DCD1013698E8810006EB46060BEB8605A1
:101CA0002B462146002213B11A605A609A6001390E
:101CB00003F10C03F7D104EB440105EB8103B842B7
:101CC000019320D000F10C063546D0F8049055F869
:101CD0000C4C4C4508D0206808B103F0C3FF0C340D
:101CE000A145F8D155F80C9CB9F1000F02D0484637
:101CF00003F0B8FFBE4205F10C05304601D00C36AA
:101D0000E3E7D8F8007017B1384603F0ABFF019B4A
:101D1000C8F800B0C8F80430C8F808A003B0BDE89F
:101D2000F08FA9423FF674AF41B98A468B4678E7F7
:101D300038465D46B4E70748FEF708FC01EB410A68
:101D40004FEA8A0A66E700BFABAAAAAA55555515FD
:101D5000ABAAAA2A509200002DE9F04F05468769E8
:101D60000A684868D5F81C900E46821AAF49C7EB3E
:101D700009049210A410531E01FB04F18B4287B09A
:101D800000F2D2812AD203EB430307EB830AD14549
:101D90001DD00AF10C08574658F80C4CD7F804B07F
:101DA0005C4509D023680C3418460BB103F05AFF88
:101DB000A345F7D158F80CBCBBF1000F02D0584630
:101DC00003F050FF0C37B94508F10C08E4D1C5F811
:101DD0001CA070683368C31A9B10013B6A6AAF6A23
:101DE0009249BC1AA41001FB04F19942C0F0A281EF
:101DF00016D903EB430302EB8308474518BF44465B
:101E000007D023680C3418460BB103F02BFFA74210
:101E1000F7D1C5F8288070683368C31A9B10013B5E
:101E2000EA682F698149BC1AA41001FB04F19942A8
:101E3000C0F08D8112D903EB430302EB83084745C1
:101E400018BF444607D023680C3418460BB103F082
:101E500009FFA742F7D1C5F810807068EB6B2A6CB8
:101E600050F8041CD21A9210914200F2698103D2F8
:101E700003EB81032B64706834682A6B6F6B6B49CA
:101E8000031BB81A9B10801003F1FF3801FB00F10F
:101E9000884500F2328115D208EB480802EB880829
:101EA000474518BF444607D023680C3418460BB189
:101EB00003F0D8FEA742F7D1C5F8348034687368C0
:101EC0001B1B9B1095E80101584AC0EB08018910C3
:101ED00002FB01F19942C0F0208111D903EB4303C9
:101EE00000EB8307B84509D03C4623680C341846FC
:101EF0000BB103F0B7FEA045F7D128686F603468D6
:101F0000216890E80C009B1A9B10994200F2008116
:101F100003D202EB81024260346873681B1B072BFB
:101F200040F2B3804FF0000A4FF001082B6854F8DC
:101F3000281008EB480703EB870053F82740436855
:101F40001B1B9B1099424FEA880700F2CB803CBFD5
:101F500004EB81044460296B33680AEB4A0401EB0B
:101F6000040E0A59DEF80410D859891A89108842DB
:101F700000F2BC8005D202EB8000CEF8040033688A
:101F8000D859E96801EB040E0A59DEF80410891AE1
:101F900089108142C0F09F8005D902EB8000CEF805
:101FA00004003368D859696A01EB040E0A59DEF857
:101FB0000410891A89108142C0F0868005D902EB8D
:101FC0008000CEF804003368D859A9690A19009234
:101FD0000A590099D1F804B01449C2EB0B0E4FEA2C
:101FE000AE0E01FB0EF1814267D318D900EB400021
:101FF00002EB80039B4501930BD0DDF80490D9F8E8
:10200000003009F10C0918460BB103F02BFECB454B
:10201000F5D1009B1A46019B53603368D8590028BC
:10202000C8BF4FF000090DDC24E000BFABAAAAAA8C
:102030003CBF02EB810141603368D95909F10109C4
:10204000494517DDA86953F80A10035909EB490EF1
:1020500003EB8E0053F82E2043689B1A9B10994285
:10206000E6D9C91AFFF79CFA3368D95909F1010971
:102070004945E7DC71681C4608F10108CB1AB8EB4A
:10208000A30F0AF1040AFFF451AF2846FFF72CF81A
:102090002846FFF765F802A8304903F0A5FF02A91A
:1020A0002F4803F0F5FD2E4803F018FE02A803F0B8
:1020B0005BFF002007B0BDE8F08F411A0098FFF7E2
:1020C000B5F93368D859AAE7411A7046FFF768FA9C
:1020D0003368D85979E7411A7046FFF761FA3368D7
:1020E000D85960E7C91AFFF75BFA34E7411A70461E
:1020F000FFF756FA3368D85943E7C1EB080105F1F9
:102100003000FFF793F9346873681B1B9B10D9E606
:10211000C91AFFF745FA3468FFE62846591AFFF74F
:1021200085F928683468EBE6591A05F11800FFF7BD
:102130003BFD4EE6591A05F12400FFF777F96AE6F0
:1021400005F13C00891AFFF72BFA706894E605F157
:102150000C00591AFFF76AF970687FE6E0920000F8
:10216000D824FF1F2DE9F047164604467568B0686D
:10217000002286B022606260A260E2602261626139
:10218000A261E26122626262A262E262226362632F
:10219000A263E263226462648542019198463768D3
:1021A00043D0AF423CD006AA304642F80C1D394617
:1021B000FFF78CFC7268B068376882423ED00AB183
:1021C000C2F80080151D756039466D1A0023A810ED
:1021D0000393049305932ED0B0F1804F5DD228462F
:1021E00003F03EFD96E80600521A0346164690108C
:1021F0001D4405950393049320B11846324606F01A
:10220000F5F903469A1903A920460492FFF7A4FDA5
:10221000039808B103F026FD204606B0BDE8F0871C
:1022200007B139603A1D7260C7E7394601AA3046E6
:10223000FFF74CFCBEE703462E46D9E7D11B8A10B8
:1022400022D053009A422AD96FF00309484603F07E
:1022500007FD0746D6F800A07268CAEB0202BD1857
:102260004FEAA20318BF47F8028083B90435BAF1D8
:10227000000F02D0504603F0F5FC07EB0902B260F4
:10228000376075603946A0E74FF00409DEE7514634
:102290003846043506F0AAF9ECE7FEF731F9B3F158
:1022A000804FD1D213B999461F46D3E74FEAC209EE
:1022B000CCE700BFF8B50021054603F045FA002839
:1022C00055D0D5F81C710646002F4ED005F58E74FA
:1022D0003B1D224605F5907107F5827733F8020B16
:1022E00042F8040F9F42F9D1331D05F5477206F5F8
:1022F000827733F8020B42F8040FBB42F9D1D5F8CC
:10230000180180B105F5927200F5007E32F9043CA7
:1023100030F9027B03FB07F3DB13864522F8043C0C
:1023200002F10402F2D105F5E56004F043FE95F8F0
:102330002177EFB905F21C5C95F82027E64605F2F7
:102340001C7154F8043F23FB03F3B3FBF2F34EF884
:10235000043F7145F5D17B1CDBB2934220D085F858
:102360002137D5F81C0103F0ABF9C5F81C61F8BDA5
:1023700005F21C5C95F82027E64605F21C7154F81E
:10238000043F23FB03F35EF8040FB3FBF2F3714544
:102390000344CEF80030F2D17B1CDBB29342DED195
:1023A0000023DFF83CE085F82137604605F1160789
:1023B00050F8044FB4FA84F381423EF81320B4FB82
:1023C000F2F31A444FEA5203B4FBF3F423444FEA06
:1023D000530327F8023FEBD1012385F82237C0E7EA
:1023E00018950000164A174B1168174809691279A9
:1023F0000270994208D2154A1278F2B1144A0121AA
:10240000116003F1800001E01846803B114A126818
:1024100092B110B4104C2188402928BF402102EB12
:10242000410240312180023233F8021B22F8021FA0
:102430009842F9D85DF8044B704703F18000E5E756
:102440008035FF1FE41BFF1F1F8000408835FF1FE2
:1024500008E200E07C35FF1F7435FF1F2DE9F041D5
:10246000054603F0D9F8024672B6234B19887F2936
:102470000AD8002837D0214C2168002936D062B60E
:10248000BDE8F04103F01CB91C4900200E6818801B
:102490000A6062B6DFF86CE0194FDEF800303C6885
:1024A000DFF864C0311D06F582780A881B1B920391
:1024B000D01880FB0C344FEA840444EA937323F36E
:1024C0008F3021F8020B88451446EED82846314655
:1024D0000022CEF800303C6003F01CF93046BDE825
:1024E000F04103F0EDB862B6BDE8F08120601980DC
:1024F00062B6BDE8F08100BF7435FF1F7C35FF1F59
:102500007835FF1F7035FF1F00B0FB3F10B5044644
:1025100003F04AFA204610BDF8B50446102001F039
:10252000E7FC022001F0BEFC042001F015FD20466E
:1025300001F050FD3F4B404C4049414A800303406D
:1025400000202360086013685B0208D53D4B1A68C1
:1025500048F6A273134048F6A272934258D0384905
:10256000384A0B68384F394D39483A4C43F48003A8
:102570000B604FF0010E40F2F44648F6A37140F2B2
:102580000113C7F800E02E60116014600360324A46
:10259000324C136843F0440313602046012103F0DA
:1025A0009DF923682E4A1A600021998022792D48CE
:1025B000186102F1804202F5043240F201106FF01E
:1025C000FF06D8809E61802502200627A826DD828E
:1025D000D960DD8398609F8398821170167003F034
:1025E00023F92279204B214E187053119B0003F1DF
:1025F00060431F4C327003F5614302F1100002F09A
:102600001F0701211B4D44F82050B9401960F8BD47
:102610000E4B1A6840F2F4439A42A0D10A4B1B6851
:10262000012B9CD10A4B1A6840F201139A4296D1B1
:10263000ADE700BF00C0FF3F7835FF1F7035FF1FBB
:102640003C800440006003400C6003400460034091
:1026500010600340A28F010020B003408035FF1FAF
:1026600010B00340641BFF1F8835FF1F1B80004014
:10267000001EFF1FE5230000024A0349034805F03E
:10268000B3BC00BF3023FF1F0D2500008035FF1FA6
:1026900038B5074D074C08482A46214605F0A4FCEA
:1026A0002A4621460548BDE8384005F09DBC00BFDC
:1026B0003023FF1F0D2500008C35FF1F9435FF1FB1
:1026C000024A0349034805F08FBC00BF3023FF1FB7
:1026D0000D2500009C35FF1F024A0349034805F001
:1026E00083BC00BF3023FF1F0D250000A435FF1F52
:1026F000024A0349034805F077BC00BF3023FF1F9F
:102700000D250000AC35FF1F024A0349034805F0C0
:102710006BBC00BF3023FF1F0D250000B435FF1F29
:10272000024A0349034805F05FBC00BF3023FF1F86
:102730000D250000BC35FF1F024A0349034805F080
:1027400053BC00BF3023FF1F0D250000C435FF1F01
:10275000024A0349034805F047BC00BF3023FF1F6E
:102760000D250000CC35FF1F024A0349034805F040
:102770003BBC00BF3023FF1F0D250000D435FF1FD9
:10278000024A0349034805F02FBC00BF3023FF1F56
:102790000D250000DC35FF1F024A0349034805F000
:1027A00023BC00BF3023FF1F0D250000E435FF1FB1
:1027B000024A0349034805F017BC00BF3023FF1F3E
:1027C0000D250000EC35FF1F024A0349034805F0C0
:1027D0000BBC00BF3023FF1F0D250000F435FF1F89
:1027E000024A0349034805F0FFBB00BF3023FF1F27
:1027F0000D250000FC35FF1F10B4047F4160022C42
:10280000C26003D05DF8044B03F0EAB883685DF85A
:10281000044B1847F0B4464B464A986B5C6B017901
:102820001170454922790A701A6B00790870002AE4
:1028300046D05968C9688A423ED82168CC8B2404A6
:1028400002F1FF3065D4C0F30E00C883C88B80B29C
:10285000C882996B0968C88B000452D4C2F30E0079
:10286000C883C88B002480B212F1FF32C88218BF1F
:1028700001221C63596B2E4809680D6800F12C0475
:10288000A54236D00068C46814F0804F0C680D680B
:1028900015BF248824780235013544F000440D60CA
:1028A0004463996B254B09791970214912B14A6B20
:1028B00012791A70F0BC7047521A1A630122D9E7D4
:1028C000D86B196805681E4C0A63CC62CC682D6809
:1028D0001C4E24F080440327B542CC6083F82D7051
:1028E0001FD1037F4260022BC2601ED0F0BC03F0F8
:1028F00077B8016890F82C00CC6840F0004048633D
:10290000CFE7CC8BC2F3080004F47E442043C88395
:10291000A7E7CC8BC0F3080004F47E442043C883AF
:1029200094E72B461146F0BC18478368F0BC184763
:102930003423FF1F1F8000401C8000401B8000408C
:1029400000000FFFF927000000207047704700BF0C
:10295000064B074ADA620221002259609A7083F816
:10296000242083F8302083F8322070470436FF1F7C
:10297000F89500002149224A0B6843F080030B6060
:1029800011461368DB07FCD40B689B07F9D41D4B79
:1029900030B44FF08072194D186000E0A2B1296880
:1029A000194B164C0B40013A002BF7D062B1012BAA
:1029B0000AD1236813F0800F23680FD043F001136E
:1029C0002360032030BC70470C4A136843F4702323
:1029D00043F001031360012030BC704713F48033CF
:1029E00005D0236843F0011323600520F4E7226833
:1029F00042F0010218462260EEE700BF30100B40A3
:102A000024100B400C100B4001000E0070B50D4D52
:102A10000D480E4E00232B60FFF7ACFF63240346E6
:102A200006E04BB92B60FFF7A5FF013C034605D03C
:102A3000326805485207F4D4184670BD002808BF14
:102A4000052070BD08100B400000DB0C24100B406B
:102A5000F8B5384B1A780AB10320F8BD5B78064602
:102A600003B94902344D354C354B36484FF6FF77A4
:102A70004FF481322F6021601A60FFF77BFF00283E
:102A8000EBD1314B31491B681C3406F1400206F58D
:102A900010702B68284F43F0200613F4E00F2E60CF
:102AA0003ED123681E05FCD50B6842F8403C0B68FC
:102AB00042F83C3C0B6842F8383C0B6842F8343C26
:102AC0000B6842F8303C0B6842F82C3C0B6842F82B
:102AD000283C0B6842F8243C0B6842F8203C0B6809
:102AE00042F81C3C0B6842F8183C0B6842F8143C56
:102AF0000B6842F8103C0B6842F80C3C0B6842F83B
:102B0000083C0B6842F8043C40328242C1D10020AC
:102B100009490B68084A9B07FBD50D4B1360F8BDAC
:102B200043F4E00343F020033B60FFF76FFF012015
:102B3000EEE700BF5836FF1F30100B4008100B4067
:102B400004100B4010003A1110100B4020100B40E5
:102B500022000001F8B52B4B1A780AB10320F8BD0A
:102B60005B78044603B94902274D284E284B294873
:102B70004FF6FF774FF481322F6031601A60FFF714
:102B8000F9FE0028EBD1244B24491B682E4604F59E
:102B900000772B681C4AD806FBD5336813F4E00F86
:102BA0001AD104F1400254F8043B0B60A242FAD15E
:102BB0002B68DFF854E043F010032B602B6813F40C
:102BC000E00013D19742E4D10F490B680E4A9B07EE
:102BD000FBD5134B1360F8BD136843F4E00343F0D7
:102BE00010031360FFF712FF0120EDE7DEF800305D
:102BF00043F4E00343F01003CEF80030FFF706FF84
:102C00000120E1E75836FF1F30100B4008100B4041
:102C100004100B4000003A1810100B4020100B401D
:102C20001200000110B50121007801F041FB114AAA
:102C30001378C3B11049CB7A00241846147093B1AD
:102C4000DA0703D50D4AC869106018469C0703D5FA
:102C50000B4B0A6AC87A1A60420705D4030702D5EB
:102C6000084B8A6A1A6010BD074B4A6AC87A1A6014
:102C7000F4E700BF6C36FF1F3423FF1F00E100E0C4
:102C800004E100E00CE100E008E100E0234B1A78E9
:102C90001AB10078002101F00BBB70B4204A214921
:102CA000D47A096801251D70002C26D072B6D47A1A
:102CB000E607234606D51C4DD3682E683340D36102
:102CC0002B602346A50706D5184D14692E68D37AC4
:102CD000344014622C605C0706D5154D54692E688B
:102CE000D37A344054622C601B0705D5114C93698C
:102CF00025682B409362236062B61368DA688A42C3
:102D000007D00D4C1C600D4AD96041F080441C6115
:102D10001A600078002170BC01F0CABA6C36FF1F3F
:102D20003423FF1F6836FF1F80E100E084E100E0EC
:102D300088E100E08CE100E001403F0000003F80BE
:102D4000F0B41248124A036882B016460093009FFE
:102D50004FF00045FF24136843F480631360D5628D
:102D60005463D36A002BFCDAB36BDBB2FF2B09D0C0
:102D700003680193019BDB1B8B42ECD3002002B064
:102D8000F0BC7047012002B0F0BC7047D438FF1F80
:102D900000C00240F8B50D464FF496711646044641
:102DA000FFF7CEFF284B1A684FF0004042F48062D4
:102DB00045F040011A60D8621A465963D36A002B65
:102DC000FCDA214918204FF000470A6826FA00F380
:102DD00042F48062DBB20A60CF624B63CB6A002BA5
:102DE000FCDA083810F1080FEFD155B3082D0CBFED
:102DF0008721FF21144B1A684FF0004042F4806293
:102E00001A60D8621A465963D36A002BFCDA0E4A5C
:102E1000002716464FF00045FF21136843F48063F6
:102E20001360D5625163D36A002BFCDAB36BD8B25E
:102E30001B06607000D4F8BD0137B7F5807FECD178
:102E4000F8BD9521D6E700BF00C00240F0B4154997
:102E5000154A0B6882B016460093009F4FF000455C
:102E6000FF24136843F480631360D5625463D36A0C
:102E7000002BFCDAB36BDBB2FF2B43700AD10B687B
:102E80000193019BDB1BB3F5967FEAD9002002B0CA
:102E9000F0BC7047A3F1FE00B0FA80F0400902B028
:102EA000F0BC7047D438FF1F00C00240F8B58378EB
:102EB000032B0E46044618BF4E021546FFF7E6FEEA
:102EC000324611212046FFF765FF18B92046FFF76B
:102ED000BDFF20B92046FFF7A5FE0020F8BD204B1E
:102EE0002049214A1A608E4659631A4659631E4684
:102EF000596305F5FD70A91C05F5FE77D36A13F03B
:102F0000F00FFBD0C6F834E0B36B01F8013C1B12A4
:102F100001F8023C02318F42F0D105F50075A8425C
:102F20000DD20F4A1646D36A13F0F00FFBD0B36BE5
:102F3000191200F8021BA84200F8013CF3D3084B19
:102F40000949084A196019465A63CB6A044A13F0C2
:102F5000F00FFAD02046936BFFF764FE0120F8BD16
:102F600000C00240FFFF009000041F80F0B4314E0B
:102F700033684FF0004743F4806333603D46F762A7
:102F8000344671633346511C02F20127E26A002A7B
:102F9000FCDA1A6811F8016C42F480621A60DD6292
:102FA0005E63E26A002AFCDA1A6811F8026B42F4E6
:102FB00080628F421A60DD625E63E7D11D49CA6A92
:102FC0001C4B002AFBDA1A684FF0004542F480627D
:102FD000FF241A601946DD625C63CB6A154A002B38
:102FE000FBDA13684FF0004543F48063FF2413605D
:102FF0001146D5625463CB6A0E4A002BFBDA136884
:103000004FF0004543F48063FF2413601146D562FE
:103010005463CB6A074A002BFBDA936BDBB203F0F5
:103020001F024370A2F10500B0FA80F04009F0BC25
:10303000704700BF00C0024070B5044671B183788C
:10304000032B0D4618BF4D021646FFF71FFE2A46FA
:1030500018212046FFF79EFE054620B12046FFF7C7
:10306000E1FD002070BD3246FE212046FFF77EFFC5
:103070000028F3D04FF416712046FFF761FE0028B8
:10308000ECD02A460D212046FFF784FE0028E5D12A
:103090000B4B1A684FF0004542F48062FF201A6023
:1030A0001946DD625863CB6A054A002BFBDA936B45
:1030B00013F0FF0FD2D12046FFF7B4FD012070BD01
:1030C00000C00240014B024A1A6070476836FF1F79
:1030D0000320003838B590F90530002B03DBBDE83C
:1030E000384000F079B904460121006900F0B4F9D4
:1030F000F8B1257D104B13EB45151AD0A3790F4A73
:10310000012B9CBFA369EB61E36912686B831B0C05
:10311000AB8232B105F1160105F1180090472B8BF7
:103120006B82637903F07F036371BDE8384000F080
:1031300053B9002038BD00BF7C36FF1F7036FF1F1B
:1031400010B500F1080204460121006A00F02CFAD3
:1031500050B1E3693BB96379A268E26163F07F0330
:103160006371012010BD012010BD00BFF8B5837947
:1031700013B182698A4201D20020F8BD022B0F46AA
:1031800005461AD007B32B6AE9681C7C4A1E04F175
:1031900009037C1EDA40DC40A24211D9EB69AB6026
:1031A00005F1080606E0A968286A00F0C5F9013CA7
:1031B0000028E1D03246002CF5D1EF600120F8BDA7
:1031C0000029EBD0A41AEBE7AF60EF600120F8BD57
:1031D0002DE9F04F8B46817985B001290746019290
:1031E00005D001233B71002005B0BDE8F08F427986
:1031F0009107F6D5530708D5FC68B9698C4200F0F1
:10320000B480FFF7B3FF0028EBD0019BFC68002BD4
:103210004AD0DFF8A491DFF8A4A1DDF80480386A71
:103220000679013E06EA542616F0FF06C4F30804A8
:1032300043D1002C41D1B968002973D1FA69002A21
:1032400000F08380BA60C4F50075ADB245453AD947
:10325000057C4169023AAA400E4416441FFA88F5DB
:103260001CB9F868BA6990424FD23046012100F08B
:10327000F3F80028B5D04C4404EB050E74450DD08E
:103280000BF1FF31621E0EF1FF3611F8010F02F84B
:10329000010F9642F9D1C4EB0E04A344FC68B8EBCD
:1032A00005082C44FC60BAD1BB69A34262D27A798A
:1032B000BC6142F080027A7165E0C4F50075ADB280
:1032C0004545BA68C4D8017C4069023A8A40064440
:1032D000B5F5007F1644C3D1DAF80020964204BF4A
:1032E0004FF0FF32CAF800202F4A10680278FE2AF9
:1032F000314633D05A46FFF79FFE00283FF471AFA6
:103300000BF5007B4FF40075C8E700F065F8002866
:103310003FF467AF2549CAF800600A7842F001021D
:103320000A70A8E703AA00F007F900283FF45CAF91
:10333000386A1F4B90F82050039A4FF6F871102D01
:1033400018BF19468A42FFF47DAF3846FFF7F8FEF2
:1033500000283FF446AF386ABA6874E75846FFF76A
:10336000F9FBB0FA80F04009C7E7019B002B7FF41E
:1033700050AF08E00F4B7A791B6823B1019B13B162
:1033800042F080027A71120709D5BB79002B3FF415
:1033900028AF3846FFF79EFE00283FF422AF019881
:1033A00005B0BDE8F08F00BF7836FF1F7C38FF1FE7
:1033B000F8FFFF0F7036FF1F7C36FF1F7423FF1FBF
:1033C00000B583B002AB012203F8011D1946FFF7D7
:1033D000FFFE03B05DF804FB70B51A4C23780BB9FF
:1033E000012070BD184D194B286819680378FE2B11
:1033F00017D0174AFFF720FE88B1164E316819B969
:1034000000232370012070BD28680378FE2B0FD0A5
:103410000F4AFFF711FE10B100233360F0E70020E0
:1034200070BD0B48FFF796FBB0FA80F04009E3E768
:103430000748FFF78FFBB0FA80F040090028EBD176
:10344000EDE700BF7C38FF1F7836FF1F7423FF1F96
:103450007C36FF1F7436FF1F70B5124D2B688342F8
:103460000E4611D00446FFF7B7FF08B9002070BD23
:103470000D4B18680378FE2B0CD00C4A2146FFF741
:1034800015FD0028F2D02C60094B197831431970D2
:10349000012070BD21460548FFF7DAFAB0FA80F046
:1034A0004009EEE77423FF1F7836FF1F7C36FF1FAD
:1034B0007C38FF1FF8B590F82030C469102B1A4BE8
:1034C00005460E4617461B6816D004EBD1149C42E5
:1034D00016D106F07F06154A42F826701449287E58
:1034E0000A78012842F001020A7018D9A968114A25
:1034F0000B4413600120F8BD04EB11249C4208D05A
:1035000000212046FFF7A8FF50B195F82030102B7E
:1035100007D1F6B2054A234622F81670DEE70120ED
:10352000F8BD2346D5E700BF7423FF1F7C36FF1F7D
:103530007C38FF1F7436FF1FC36801338B4218D3DA
:1035400070B590F82030102B154B044616460D46EA
:10355000C0691B680FD000EBD11098420FD105F065
:103560007F01104B53F8213023F07043336001206A
:1035700070BD0020704700EB1120984207D0002159
:10358000FFF76AFF50B194F82030102BE7D1E9B271
:10359000044B33F811303360012070BD002070BD42
:1035A0007423FF1F7C36FF1F2DE9F04F176883B08F
:1035B0006FB301374FF0000AC36803F1010813B37A
:1035C0008B46064691463C46002505E01C461F46B4
:1035D000F3680135AB4216D9A04538BF0224214615
:1035E00001AA304638BF2746FFF7A6FF631CD91B48
:1035F00048B1019A002AE9D18B4510D01C46F368E6
:103600000135AB42E8D8002003B0BDE8F08FA1F14E
:10361000010ABAFA8AFA07684FEA5A1ACCE7012C6B
:10362000F1D9F36801339C42EDD86FF07042214626
:103630003046FFF73FFF0028E5D0A74214D2013CF7
:10364000012CE0D9F36801339C42DCD8621C21468E
:103650003046FFF72FFF0028D5D0A74204F1FF34F2
:1036600002D0012CEED1CEE7D9F8001059B10129D2
:10367000C9D9F36801339942C5D83A463046FFF7B5
:1036800019FF0028BFD0C9F80070BAF1000F01D0AF
:10369000013737600120B7E701F01EBE01F040BEE0
:1036A00001F056BE074882B003680193019A1144A5
:1036B00001E0994204D303680093009B9A42F8D931
:1036C00002B07047D438FF1F10B4104A85B0A1B9BA
:1036D000136800934168009B591A18290DD8136884
:1036E0000293029C04F11903591A01E0994204D390
:1036F00013680193019B9C42F8D913680393039BC1
:103700004360012005B05DF8044B7047D438FF1FBB
:10371000704700BF2DE9F0410D4D0E4EDFF83C80A3
:103720000D4F41641B2401E000F0CEFD2B78C82032
:1037300043B13378DB0705D5D8F800303A689B1AD7
:103740000E2B03D8013CEFD1BDE8F081BDE8F0813C
:10375000B839FF1FD039FF1FC43DFF1FD438FF1FEA
:1037600000238364436071B1074882B0036801930A
:10377000019A114401E0994204D303680093009B2D
:103780009A42F8D902B07047D438FF1F70B5144C74
:1037900084B00546406C236803930368039A6A600B
:1037A0000E465B680F4906229847314600230A22DD
:1037B000686C02F0A3FA686C0B49036808225B6826
:1037C000984723680293029A02F1320101E099427C
:1037D00004D323680193019B9A42F8D904B070BDC9
:1037E000D438FF1F2096000028960000F8B5037E0D
:1037F0000BB96320F8BD0446406C3B4E03681B695F
:10380000B3420D466AD101F0A3FD10F0FF0F01D1C4
:103810006520F8BD354F606C03681B69B3425FD10A
:1038200001F096FD10F0FF0FF2D0606C03685B6949
:10383000BB4257D101F050FDC3B2A3F158021E2A7A
:10384000E9D801A151F822F0D5380000173800005E
:10385000173800001738000017380000173800002C
:10386000173800001738000017380000173800001C
:1038700017380000C938000017380000173800005A
:103880001738000017380000F33700001738000021
:1038900017380000173800001738000017380000EC
:1038A000173800001738000017380000F337000001
:1038B00017380000173800001738000017380000CC
:1038C000C53800001846F8BD20462946FFF75EFFC0
:1038D0006320F8BD002323766320F8BD984794E762
:1038E00098479FE79847A7E7A13600009936000060
:1038F00070B5054682B01646C9B101230D4C03765A
:1039000000212846FFF772FF632810D02368019337
:10391000019A511C23680093009B9A42F0D8994267
:10392000F8D200212846FFF761FF6328EED12E76FA
:1039300002B070BDD438FF1F034B00229A60DA60DA
:103940001A615A61704700BF8038FF1F90F8392014
:1039500090F83800101A704790F8383090F83920F5
:103960009A4205D95A1C034480F83820187E7047C3
:103970004FF0FF30704700BF90F8383090F8392092
:103980009A4286BF1B18187E4FF0FF30704700BF69
:10399000704700BF38B50546B0F85E0090B195F8A5
:1039A0005D301446C3F1210294420CD805F13B006E
:1039B0001844224600F0CAF895F85D30234485F893
:1039C0005D30204638BD012014462871EEE700BF67
:1039D000B0F85E306BB190F85D30202B07D8C2187C
:1039E000013380F85D30012082F83B1070470123DD
:1039F00003710020704700BF38B50269D478E4B283
:103A0000E106054624D51023D37063061FD504F0C4
:103A1000040404F0FF03002C5AD042496A6E0023CC
:103A20000B7085F85D30002A66D0904795F85D30C0
:103A3000002B61D02B69D0229A702B6995F83B201E
:103A40001A712B69012285F85C200222DA7038BDD8
:103A500004F0400303F0FF00002BD8D19379DBB2D0
:103A600003F0600160294ED0937803F0100303F057
:103A7000FF01B3B114F0010437D195F85C3095F82B
:103A80005D1099424BD9591C2B4485F85C1093F872
:103A90003B3013712B69D0229A702B690222DA70A5
:103AA000D5E785F86010937943F0200393712B6973
:103AB00095F839101A791F29D2B2C6D8194800785A
:103AC0000028C2D06818013185F839100276BCE7A9
:103AD0002A6985F83930C02393702B69114A197906
:103AE000012111700222DA70B1E7C02393702B69B3
:103AF0001A790222DA70AAE70122002385F85D20F4
:103B000085F83B3096E703F0DF039371AB6E23B18A
:103B100085F8380095F8390098472A69A4E71471A8
:103B2000B8E700BFCC38FF1F0148FFF765BF00BFF3
:103B3000E423FF1F0148FFF75FBF00BF5024FF1FB2
:103B40000148FFF759BF00BF7823FF1F844641EAB1
:103B5000000313F003036DD1403A41D351F8043B05
:103B600040F8043B51F8043B40F8043B51F8043B57
:103B700040F8043B51F8043B40F8043B51F8043B47
:103B800040F8043B51F8043B40F8043B51F8043B37
:103B900040F8043B51F8043B40F8043B51F8043B27
:103BA00040F8043B51F8043B40F8043B51F8043B17
:103BB00040F8043B51F8043B40F8043B51F8043B07
:103BC00040F8043B51F8043B40F8043B51F8043BF7
:103BD00040F8043B51F8043B40F8043B403ABDD266
:103BE000303211D351F8043B40F8043B51F8043B08
:103BF00040F8043B51F8043B40F8043B51F8043BC7
:103C000040F8043B103AEDD20C3205D351F8043B96
:103C100040F8043B043AF9D2043208D0D2071CBF62
:103C200011F8013B00F8013B01D30B88038060468B
:103C3000704700BF082A13D38B078DD010F0030301
:103C40008AD0C3F10403D21ADB071CBF11F8013B71
:103C500000F8013B80D331F8023B20F8023B7BE7C0
:103C6000043AD9D3013A11F8013B00F8013BF9D2EB
:103C70000B7803704B7843708B7883706046704785
:103C8000374A384913681B06FCD40B6813F08003CD
:103C9000F8D172B634490A78002A5FD0334A3448E2
:103CA000F0B4344C176806682568D4680C303E447C
:103CB000143200681268304F35442C4420440244CA
:103CC000C2F34E022D4E2E482E4D2F4C42F4004290
:103CD0003A60376806682D682C4A24680C303E44E8
:103CE000006812682A4F35442C4420440244C2F331
:103CF0004E02284E2848294D294C42F400423A6091
:103D0000376806682D68274A24680C303E440068EE
:103D10001268254F35442C4420440244C2F34E021D
:103D2000224E2348234D244C42F400423A60376827
:103D300006682D68214A24680C303E4400681268E9
:103D400035442C4420440244C2F34E021C4842F441
:103D5000004202600B7062B6F0BC704762B67047FA
:103D600024B0034024B00B40CE38FF1F38B00340CE
:103D70003CB0034040B003402CB0034058B0034077
:103D80005CB0034060B0034064B003406CB00340DB
:103D900030B0034038B00B403CB00B4040B00B405B
:103DA00044B00B404CB00B402CB00B4058B00B4013
:103DB0005CB00B4060B00B4064B00B406CB00B408B
:103DC00030B00B4030B42948294A2A4B2A4D602490
:103DD000E121047011701B78284C082B30D00A2B7D
:103DE0002748284937D00C2B0CBF35225D221223DF
:103DF0002A60236002600B60234B24491B78244A0D
:103E0000BBB101230B601360224B23491B78234A6B
:103E1000012B26D9042B0FD9082B1ED9102B94BFA8
:103E2000862387230B6013601D4B01221A7030BC60
:103E300070470B601360E7E784230B601360F3E7C0
:103E400000F58E200F490830212213232A602360B9
:103E500002600B60D0E73922F7E785230B6013601F
:103E6000E2E780230B601360DEE700BF00400740FD
:103E700001400740BC24FF1F08B003400CB00340C2
:103E800008B00B400CB00B40D138FF1F20B00340EE
:103E900020B00B40BD24FF1F24B0034024B00B40D2
:103EA000CE38FF1F68B10E4A1378C3B90D4909789F
:103EB0000120107019B10C490C4A0B601360FFF718
:103EC00081BF074B1A7852B1064A18701378002B3D
:103ED000F5D0054A054B10601860FFF773BF7047B7
:103EE000D138FF1FCE38FF1F24B0034024B00B4051
:103EF0000C2830B417D91023984228BF18461C4606
:103F0000104A114D1178181A8C42287018D00F4998
:103F100013700B7823B10E490E4A00230B60136017
:103F200030BCFFF74FBF0A2802D90C231C46E7E735
:103F3000082802D90A231C46E2E708231C46DFE7CB
:103F400030BC7047BC24FF1FCD38FF1FCE38FF1F89
:103F500024B0034024B00B4010B51A4B1B78044624
:103F6000BBB9012C19D9042C174B18490AD9082CB4
:103F700020D9102C17D907221A600A60144A20236E
:103F8000137010BD04221A6013460A60104A1370A1
:103F900010BDFFF775FE012CE5D80B4A0023136016
:103FA0000B4A137010BD06221A600A60084A1023DB
:103FB000137010BD05221A600A60054A08231370A9
:103FC00010BD00BFCE38FF1F24B0034024B00B400B
:103FD000BD24FF1F47282FD8334B2DE9F0411E5C2D
:103FE000FF2E2BD0314B1B78002B2AD132062CD43C
:103FF00072B62F4D2F4C2F46012326602B7062B6D0
:1040000072B623681B060CD43B781BB9F4E72B78F7
:10401000002BF1D062B602F015F872B623681806CC
:10402000F5D5254B1B6800222A7062B6234A10780A
:1040300043FA00F0BDE8F081002070470020BDE8A1
:10404000F081FFF71DFE3206D2D572B61C4DDFF8A7
:104050007C801C4C06F04007FFB206F03F06D8F803
:104060000030DFB123F01003C8F8003001232660D0
:10407000134A2B7062B672B6236819060CD41378F3
:104080001BB9ECE72B78002BE9D062B601F0DAFF20
:1040900072B623681B06F5D50B4BC3E743F010033C
:1040A000C8F80030E2E700BF00970000CE38FF1FDD
:1040B000D038FF1F00B0034010B00340CD38FF1FC1
:1040C000CF38FF1F00B00B4010B00B400CB00B40BE
:1040D00008B5104C08E0236859050DD423681A056B
:1040E0000FD42368DB0411D423685803F3D500F000
:1040F000CBFA23685905F1D502F03CF823681A057C
:10410000EFD502F0CDF82368DB04EDD502F05EF9BF
:10411000EAE700BF3480044008B5FFF7D9FF00BFCD
:10412000014B10221A80704700200540704700BFE5
:10413000094908B50B6830B16A461844A2F5005227
:10414000904202D20860184608BD03F059FF0C23C4
:1041500003604FF0FF3008BDC024FF1FFEE700BF23
:10416000084A1378802B01D0002070470649074B7E
:1041700007480860002119701378802BFCD00120BB
:10418000704700BF03E007404480044001E007405F
:1041900000002522094A1378012B01D00020704726
:1041A00003F1804303F5FC23602119701378802B01
:1041B000FCD1034B034A1A600120704703E007401B
:1041C000448004400000050210B4114B53F8302025
:1041D00092F8804234B1012379B182F880305DF8E1
:1041E000044B704703EBC0035B681A6851B922F0B7
:1041F00002021A605DF8044B704782F800315DF8E6
:10420000044B704742F003021A605DF8044B70479C
:10421000489700001C4A02EBC00301295B6811D0DB
:1042200004291BD052F83000002280F8802229B1E6
:10423000022920D0032922D01A6070474FF48072DF
:104240001A60704752F830004FF4A27280F8801262
:104250001A601A6822F020021A60704752F8301073
:104260004FF4A272012081F880021A601A6842F0AD
:1042700020021A60704740F203121A6070474FF430
:1042800081721A60704700BF4897000030B4054B38
:10429000054D064C002210211A602A60206019602A
:1042A00030BC704714D0034004D0034000D003401A
:1042B0003F2801D8FFF788BF704700BF3F2801D8CB
:1042C000FFF7A8BF704700BF2DE9F843054672B657
:1042D000214F224B224A1B683C68126862B6520189
:1042E00002D5322B88BF0134A5B3C3F524333F3345
:1042F0001C4EDFF86890DFF86880DB084FF47A72B4
:10430000A6FB031302FB04F404EB530472B6D9F8C2
:1043100000103A68D8F800E062B6C1F524333F33A4
:10432000DB08A6FB03031EF0806FC4EB53034FF4BE
:104330007A7002D0322988BF013200FB0233B3F514
:104340007A7F04D3013D05D004F57A74DEE701F0ED
:1043500079FEDBE7BDE8F883D438FF1F18E000E002
:1043600004ED00E019866118F8B54E4B4E48DFF8B1
:104370005CC14E4C4E49DFF858E14E4E4E4D4F4F0A
:104380004FF000621A604FF080521A604FF00052F6
:104390001A604FF080421A604FF000421A6000220B
:1043A000026028234DF6FF70CCF80000CEF80030F4
:1043B00023600EF5012E0B6033602B6006F500269E
:1043C0003B6005F50025A36207F500278B6204F525
:1043D000012401F5012106F6E87605F6E87507F5F2
:1043E0007F6710310EF1100E203433602B60CEF851
:1043F00000303B600B602360314CBB618B61092155
:104400002160A7F5002704F58054203F08343A6066
:104410002060BB60E36047F8041C04F5FD2407F549
:10442000FE27043704F2FC7422603860A360FB604E
:1044300044F8041C083404F6FC74C7F8FC2F206010
:10444000A4F5E124A4F2DC7433602B60C7F8F81FF4
:1044500021681C4841F40071216001681A4C0EF576
:104460007F4E0EF1E80E07F5883706F5803605F524
:10447000803541F000710160CEF8002047F6FF71F1
:104480000822396033602B602260FFF79BFC192003
:10449000FFF71AFF00F060FE40F21310BDE8F8408D
:1044A000FFF712BF04E100E00480034014800340E2
:1044B0001C800340248003402C8003403480034050
:1044C000008003400480044000900C4008800340BA
:1044D0000C800340431E032B14D872B60A4951F8CE
:1044E000230068B170B4094C058834F8132046687D
:1044F00041F82360521B24F8132062B670BC704749
:1045000062B67047002070473039FF1FB43DFF1F6F
:10451000013803280BD872B6074B53F8203043B14B
:1045200000205B680130002BFBD162B67047002091
:1045300070471846F9E700BF8439FF1F30B472B6E0
:104540002B4A13781D0706D52A4B196A002936D045
:10455000996A002941D053781C0706D5254B196C60
:1045600000293ED0996C002939D09378190705D5D8
:10457000204B196E002936D0996E89B1D3781B076C
:1045800007D51C4BD3F880207AB3D3F888201121AB
:104590003AB162B6184B00221A7030BC00F076BEF9
:1045A0000D21154C154D227843F8315003EBC10312
:1045B0000830013A5860227062B630BC704704225D
:1045C0000D4C0F4D217843F8325003EBC2030830F5
:1045D0004A1E5860227062B6EFE70521E1E7092123
:1045E000DFE70822ECE70C22EAE71022E8E700BF49
:1045F000809900000000FF1FAD39FF1FC800400078
:1046000088004000431E032B1DD81B4A400140F088
:10461000100030B4104472B6184CE25C032A1BD868
:10462000DFE802F00212151703220D88E25410F0A1
:10463000080F14BFC823882343EA054308310360E9
:10464000416062B630BC704708300222EDE70522B7
:10465000EBE708300422E8E7094A52F8230038B1B2
:10466000084A52F82300416042F8231062B6E9E795
:1046700042F82310034AF7E70000FF1FBC39FF1F71
:104680008439FF1F9439FF1F2DE9F04FDFF80CB379
:10469000DFF80CA387B044E0AB4F4FEA930807EB79
:1046A000C809013ED9F8042003F00803F6B2A2F1CC
:1046B000080003F0FF04002B40F0028157F8383067
:1046C0001B0C99B222F8081C002B00F0F0809F4BC5
:1046D00022F8064C42F8044C53F82620002A00F039
:1046E000C5829B4D55F8263058609A4C45F82600F7
:1046F00034F81630194424F8161000F0A7FD0028ED
:1047000000F0AD82944A954B19F0080F00F10800B3
:1047100018BF1346C9F8040047F8383008238BF84F
:1047200000309BF80040E4B261071AD58C4B1B782F
:10473000A3B18C490A7802F0FF0322B1013BDBB23E
:104740000B7003B900BE88490A7802F0FF032AB152
:10475000013BDBB20B70002B00F0578204238BF877
:10476000003004F0080303F0FF02002B00F0CC80BF
:104770009AF80030DBB21E098ED19C08DFF8C89190
:1047800059F8342009EBC401C2F38302013A4968A5
:104790000C2A00F28880DFE802F07C7C8686868620
:1047A00086864786868607000868704D4A68704F7F
:1047B000704E286081B240F28160674B6A604FF0B2
:1047C000010E0022814249F834303A60C9F81020C5
:1047D000C9F8182086F800E05B4C00F2E380B1F5E0
:1047E000D06F80F04683B1F5817F00F0FC8200F24B
:1047F0008D82802900F07783822940F0FA82A9888F
:1048000001F07F01042900F2F4825B485B4C8900CF
:104810000844227062700278930740F1588484F84B
:1048200000E04FF0020E42E3514F3A6832B3544B6E
:10483000504E5449188834780D784028864645F003
:10484000020828BF4FF0400E002C84F001043470A1
:10485000CEEB00000CBF8824C82409EBC80680B248
:1048600085F0010544EA0E447260188049F838402A
:1048700072440D70002800F045813A603B4B1A8865
:10488000B2F5A06F0FD100219A7859703E4B1A7083
:1048900009E0364A108842F22102904200F0378146
:1048A0002D4A49F83420394A0123137036E72A4A41
:1048B0002A4B19F0080F18BF134647F838302DE778
:1048C00000F0E4FC324A334952F82630002B00F065
:1048D000D18158688C5D42F8260003F10802C9F8BE
:1048E0000420032C05D8DFE804F02C02292602223C
:1048F0008A551A8819F0080F0CBF8823C82343EA89
:10490000024347F8383009E7E00700F181812106CA
:1049100000F1F281A20706D51F4A20491378022030
:10492000DBB213700870E30602D51C4B10221A701C
:1049300007B0BDE8F08F04228A55DAE705228A55D0
:10494000D7E703228A55D4E70000FF1F3039FF1F45
:10495000DC38FF1FB43DFF1FC80040008800400046
:10496000B839FF1F4139FF1FC039FF1FA439FF1F8E
:10497000D838FF1F4039FF1FC0200740B039FF1F44
:10498000EC38FF1FAC39FF1F9820074094200740E8
:104990008439FF1FBC39FF1F882007408020074053
:1049A0009020074042F22100814200F02A8100F26B
:1049B000D880B1F5086F00F07682B1F5106F40F045
:1049C0001882226AB349A8780870120600F13A8367
:1049D000D9F82820B049130600F10C83D9F830200B
:1049E000AD49150600F10183D9F83820AA4914060B
:1049F00000F1F682D9F84020A749100600F14A8359
:104A0000D9F84820A449120600F13F83D9F8502074
:104A1000A149130600F13483D9F858209E491506A0
:104A200000F12983D9F860209B49140600F11E8308
:104A3000D9F868209849100600F11383D9F870203E
:104A40009549120600F10883D9F878209249130697
:104A500000F1FD82D9F880208F49150600F13183DD
:104A6000D9F888208C49140600F12583D9F89020C4
:104A70008949100600F11983D9F898208649120651
:104A800000F10D838548864A864901908648874D06
:104A9000874C049700230596029580460F461646DC
:104AA0001D460394306828B1446800F0EFFB2046AF
:104AB000002CF9D100233360029B38681A4600238A
:104AC00042F8253028B1446800F0E0FB2046002C75
:104AD000F9D100223A60019A98F80030114600227C
:104AE00041F8042B039A0191023B4FF0000122F898
:104AF0001510032B00F22B81DFE813F07001250164
:104B000070012501BEF1400F18BF0022B5E6694AC9
:104B10000D784878157050708D78C8789570D07081
:104B200010680D79157186284D79897955719171C3
:104B300000F09B816049614E0A78307882F001056F
:104B4000002842F002020D700CBF8821C82149F8EC
:104B5000321009EBC20280F0010000213070516078
:104B60009EE642F22120814240F0CB81544B554CCD
:104B70005549A8781D682560CDF804E0087000202C
:104B800002908046844604464B490D7845F0020E5B
:104B900009EBCE030393019B002B039B5C600CBFCE
:104BA0008824C82444EA080385F0010449F83E300B
:104BB00032700C70DFF8E0E0404BDFF8FC8000283A
:104BC00040F01E81BCF1400F1BD144F0020C09EBF8
:104BD000CC03029CDFF8C0E05C60002A40F0268134
:104BE000020442F088029DF804304EF83C20044450
:104BF00033700D702346402803D10020334A3B60B8
:104C00001080334A012313704DE600F0ABFCA5E59C
:104C1000214B2F4828491A614FF0020E80F800E01E
:104C20002C4F0A702C49196099602C4E2C4D2D4C3C
:104C30009A610D213970FF213170DFF8B8E02970D9
:104C40002270294D294A8EF800109F27012406F86A
:104C5000047C5D600470DA6007B0BDE8F08F244A20
:104C600047F8380013780133137057E543F82600EE
:104C70000E4D3AE58B5D032B00F2F08001A252F855
:104C800023F000BF1D4700001D470000414D0000FC
:104C90003B4D0000B839FF1F0000FF1F9439FF1F74
:104CA0003039FF1F8439FF1FBC39FF1FDC38FF1F5D
:104CB000B43DFF1FBC3DFF1FAC39FF1F4039FF1F34
:104CC000D438FF1FC43DFF1FD039FF1FEC38FF1F32
:104CD00094200740C02007408800400088200740FB
:104CE0008020074098200740F038FF1F4439FF1FFD
:104CF000AD39FF1F8C200740C149C24B80220D20D7
:104D000008701A70A2077FF50EAE05E640F2023277
:104D1000914240F0EE80A98801F07F01042968D813
:104D20006A88002A65D1B648CDF804E089000844B5
:104D3000017841F00201017021E701238B55EDE478
:104D400000238B55EAE44FF0010388F80030013569
:104D5000042D06F1040607F1040708F101087FF4A9
:104D6000A1AEA94CA94B2278A94D049F059E002114
:104D700029701A70130700F105816278A549DFF8E0
:104D8000A0820A7010074FF00001C9F83010C9F86E
:104D9000381000F1E080A049A2780A700021C9F81B
:104DA0005010C9F858101107DFF8748200F1018122
:104DB000E2789A499A4C0A7000211207C9F87010DB
:104DC000C9F8781000F1B08033780193002183F0A6
:104DD0000102C9F89010C9F89810D0E64FF000030E
:104DE00088F80030B3E7A98801F07F01042940F278
:104DF0008D80834A0F2313708A4A0123137052E572
:104E000040287FF6E2AE44F002040EEBC401029E9D
:104E10004E60BAB19DF80410834A19703346403889
:104E200088F8005040334EF83420E7E69DF804300F
:104E300033700204029B0D7042F0C80203444EF826
:104E40003C20D8E69DF804101970029B774A88F838
:104E50000050403840334EF83420CFE619F0080FA8
:104E60000CBF022303238B5558E4714A0F211170A4
:104E700060E6704A5468002CBBD06888B5F804E03E
:104E800003E00C325468002CB3D013888342F8D16D
:104E900053887345F5D1000A03280CBF94F800E04D
:104EA000B2F808E003E0644A644C12782270E888A3
:104EB000704580F03F8162490D784028844645F076
:104EC000020E28BF4FF0400C04EB0C0309EBCE029E
:104ED000029301235460CCEB00004FEA0C480022FF
:104EE0000193C8245EE6554C4FF0020E22706270AA
:104EF000DDE7B1F5A06F7FF47CAF012300220193C1
:104F00003DE642F221329142F7D072E76A88002AE8
:104F10007FF46FAF3A48CDF804E089000844017887
:104F200021F0020101702AE600F090F9002800F05B
:104F3000EF8008303D4AC4F88400C4F8802000F0B7
:104F400085F9002800F0DE800830374AC9F88C0067
:104F5000C9F8882038E700F079F9002800F0C0800F
:104F60000830324AC8F84400C8F8402000F06EF912
:104F7000002800F0AF8008302B4AC9F84C00C9F86F
:104F8000482008E700F062F9002800F0CD800830E2
:104F9000264AC9F82400C9F8202000F057F9002853
:104FA00000F0BC800830204AC9F82C00C9F828203D
:104FB000E3E600F04BF9002800F09E8008301B4A21
:104FC000C8F86400C8F8602000F040F9002800F03C
:104FD0008D800830144AC9F86C00C9F86820E7E6EB
:104FE000C86B083800F052F904E5486B083800F047
:104FF0004DF9F9E4C86A083800F048F9EEE400BF5A
:10500000C02007408020074080990000C42007404E
:10501000AD39FF1FC8200740CC200740D0200740F3
:105020000000FF1F94200740C80040008800400097
:105030004139FF1F84990000B839FF1FB039FF1FA5
:10504000AC39FF1F606A083800F020F9C0E4C86F6F
:10505000083800F01BF9FDE4486F083800F016F935
:10506000F2E4C86E083800F011F9E7E4486E083839
:1050700000F00CF9DCE4C86D083800F007F9D1E461
:10508000486D083800F002F9C6E4C86C083800F032
:10509000FDF8BBE4486C083800F0F8F8B0E4D1F84B
:1050A0009C00083800F0F2F8ECE4D1F894000838DD
:1050B00000F0ECF8E0E4D1F88C00083800F0E6F8F5
:1050C000D4E4D1F88400083800F0E0F8C8E44FF0E8
:1050D000020EECE62A78C9F8480001322A705AE636
:1050E0002A78C8F8400001322A703FE72A78C9F8C8
:1050F000680001322A705BE62A78C8F86000013245
:105100002A7061E72A78C9F8880001322A705BE6C4
:105110002A78C4F8800001322A7010E72A78C9F88A
:10512000280001322A7028E62A78C9F820000132C6
:105130002A7032E7BEF1400FF44628BF4FF0400C12
:1051400004EB0C0302930123CCEB0E004FEA0C4856
:105150000022019318E500BF2DE9F04101F01CFB8E
:105160002F4C304B3048DFF8D880304F304D314E27
:10517000DFF8D0C0DFF8D0E000221A605A609A60F1
:10518000DA601A615A619A61DA611A625A629A6245
:10519000DA621A635A639A63DA631A645A649A6425
:1051A000DA641A655A659A65DA651A665A669A6605
:1051B000DA661A675A679A67DA67C3F88020216847
:1051C000C3F8842041F480212160016841F04071DE
:1051D0000160C3F3072188F8001004F52834C3F3F5
:1051E00007411B0E3970CC342B7000F12040FF2397
:1051F0008CF80030104D8EF8003000F6041033703B
:105200000E49012308F8083C702622704FF4001460
:10521000102207F82C3C2E7004600A70BDE8F08163
:10522000348004400000FF1F00D80040B020074039
:10523000B42007401020074035E400E00821074073
:105240009C200740802007408820074072B60D4808
:105250000268B2FA82F30B2B10DC4FF00041D94008
:1052600022EA0102026062B6074803EBC303DB00D7
:10527000C2180021C15010465160704762B600202C
:10528000704700BFC424FF1FD01FFF1F0D4B0E4AE5
:10529000C31AA2FB03231B090B2B0CD80B4A127851
:1052A00052B972B60A484FF00041026821FA03F37E
:1052B0001A43026062B67047064A1278002AF0D09C
:1052C000FFF73CB9D01FFF1F398EE338AD39FF1F00
:1052D000C424FF1FB839FF1F38B50F4D286878B1B7
:1052E00043880288C118013393420C7A02D243806A
:1052F000204638BDFFF7CAFF002320462B6038BD8B
:10530000064B1B782BB10320FFF7E4F82860002838
:10531000E6D14FF0FF3038BDCC39FF1FB839FF1F41
:1053200010B5094C206818B143881844007A10BDA4
:10533000064B1B782BB10320FFF7CCF82060002828
:10534000F2D14FF0FF3010BDCC39FF1FB839FF1F2D
:10535000044B054A1B6890881BB11A885B88D31AD6
:1053600018447047CC39FF1FB43DFF1F0B4B1B780F
:105370009BB110B50A4C206848B1FFF787FF0023A6
:1053800003202360FFF7A6F830B1FFF77FFF03206B
:10539000FFF7A0F80028F8D110BD7047B839FF1FFB
:1053A000CC39FF1F2DE9F04FDFF8F89083B00122D0
:1053B00089F80020019169B3DFF8EC80354F019E38
:1053C0008346D8F80000B0B3334D4488C4F140019F
:1053D000B14228BF314604EB010E00221FFA8EFEB7
:1053E0002A70761AA0F802E000F1080251B1013CDF
:1053F000224459441BF8014B02F8014F8B45F9D167
:10540000B0F802E0BEF13F0F0BD8244A052111701D
:10541000002ED6D10198002389F8003003B0BDE8F2
:10542000F08F4022028001460420FFF7EBF80022B3
:10543000C8F80020E9E73A7822B3194C164D4FF02E
:10544000010A07E0013C16D02A78A2B900F0FAFD63
:105450003A78BAB10420FFF75BF80728F2D889F848
:1054600000A0FFF7F3FEC8F800000028ADD10D4BF7
:10547000013C1870E8D101234FF0FF302B7003B0CE
:10548000BDE8F08F00234FF0FF3089F8003003B003
:10549000BDE8F08FB839FF1FC839FF1FC039FF1FA3
:1054A000C92C0100C139FF1FC439FF1F00B583B0EB
:1054B00002AB012103F8010D1846FFF773FF03B09B
:1054C0005DF804FB38B50E4D0E4C2868012323709F
:1054D00028B1408800232370C0F1400038BD0A4B3A
:1054E0001B7813B90020207038BD0420FFF710F896
:1054F0000728F7D8FFF7AAFE28600028E9D1F1E7CE
:10550000C439FF1FC139FF1FB839FF1FF8B5114B50
:105510001B788BB1104E114D346801272F7064B188
:105520000F4A638800271770214623800420FFF765
:1055300069F8376000232B70F8BDFFF787FE084B32
:1055400028B1014604201C70FFF75CF8F2E71F70D9
:10555000F0E700BFB839FF1FC439FF1FC139FF1F73
:10556000C039FF1F38B50E4B1B7873B90D4C21683D
:1055700061B103F0FF054B880B800420FFF742F870
:10558000256038BD084B01221A7038BDFFF75EFE5A
:105590000028F7D00146BDE838400420FFF732B8B4
:1055A000C139FF1FC439FF1FC039FF1FB1F5607F2C
:1055B000F0B428BF4FF4607172B6134A134C144B09
:1055C00010600022228003F1700443F8042FA342EC
:1055D000FBD1B1B10F4E002301275D0903F01F0479
:1055E00056F8252007FA04F4013322438B4246F88B
:1055F0002520F2D10023438001338B4200F58270D5
:10560000F9D162B6F0BC7047DC39FF1F563AFF1F74
:10561000E039FF1FE439FF1FF0B472B6234F244E68
:105620003C8806F1700306EB8400984212D256F8CB
:10563000241099B9021D06F17305631CAD1A03EB22
:10564000950503E052F8041B41B90133AB421C46F7
:105650001046F7D162B60020F0BC7047B1FA81F372
:105660004FF00042DA4021EA0201016001B9013441
:1056700010493C800A88013294B20C8062B6801BCB
:105680008010C3EB401000EB801083000A480B49E8
:10569000006803F5FB531C330125C5540D88AA424D
:1056A000184488BF0C80F0BC704700BF563AFF1FFB
:1056B000E439FF1F583AFF1FDC39FF1FD839FF1F9D
:1056C000428872B60378012B03D9013B037062B69E
:1056D0007047531170B40C4C0C4D54F823102E88A5
:1056E000D2434FF0004002F01F0220FA02F21143B1
:1056F000074A44F82310B34238BF2B801388013B7C
:10570000138062B670BC7047E439FF1F563AFF1F22
:10571000583AFF1FC368B3B130B401E0DB688BB106
:10572000187A9042FAD158685C7A006950F824508F
:10573000002DF3D140F82410087801300870DB68A0
:10574000002BEDD130BC7047437A8B4206D90369F8
:10575000002253F8210043F82120704700207047B1
:10576000037C23BB4368427A5B7A9A421FD830B4E9
:1057700072B60468E3682BB3DA6832B119688C42F8
:1057800016D01346DA68002AF8D1D8600023C36027
:10579000A37A0133A37202684168012313728A7AE3
:1057A0001A448A7242681372037462B630BC70473E
:1057B0005D6841688D42E4D1198903899942F4D02A
:1057C0001346DFE7E060E1E7037C4BB34368427ACE
:1057D0005B7A9A4224D872B60268D36803B39842BF
:1057E00002D11EE0984202D0DB68002BFAD1436858
:1057F000427A1B69002143F822100268937A013B28
:10580000937203689A7A02B91A724268937A013BDA
:10581000937243689A7A02B91A720023037462B6CB
:105820007047C368D360E2E7084B1A785AB9084852
:10583000084910B4D0240470012210460A601A707E
:105840005DF8044B70470020704700BFE039FF1F30
:1058500040E400E008E100E01A491B4A1B48F8B5A3
:105860000B681B4D046843F080730B60136843F0B2
:10587000010313602E6814B915E064699CB1237AA2
:10588000002BFAD023682F681B68204698472B68A6
:10589000E188DB1B1B099AB28B42A28088BFE280A1
:1058A0006469002CEBD10A4B0A4A1B6810880A4C29
:1058B0009B1B1B0999B28342218001D91180F8BD3D
:1058C000F8BD00BFFCED00E0001000E0D439FF1F80
:1058D000041000E0543AFF1F5A3AFF1FF0B572B6A9
:1058E00099B902688AB103790F2B0ED8284C218808
:1058F00041FA03F5ED070AD503F1007303F5906350
:10590000B2EB431F03D162B6F0BD214C21880023C6
:1059100041FA03F212F0010207D00133102BF7D144
:1059200062B6002203710260F0BD01259D4029434B
:10593000218062B6174E184D184FDFF868E0D9B2D3
:105940000171346844F0020434602C6844F00204AD
:105950002C60A6F5802640F28244A5F5802503F14F
:1059600000733C6003F59063223E243D0C4C8EF89E
:1059700000105B0131702970217003601A605A6059
:105980009A60DA601A615A619A61DA61F0BD00BF0B
:105990005C3AFF1F408004403C800440008000408F
:1059A0001F8000401A80004003790F2B12D80A4A4A
:1059B00010B4137072B6094904790A880123A34010
:1059C00022EA03030B8062B6102200235DF8044B29
:1059D00002710360704700BF1A8000405C3AFF1FED
:1059E00010B4EFF3108272B6437F33B9017F0129FF
:1059F00008D0032910D00123437702B962B65DF8BD
:105A0000044B7047114C2168A1B1114943610B68E7
:105A1000836108605861EEE70E4C216881B10E4940
:105A200043610B688361086058610C4B4FF08051F3
:105A30001960E0E7064B4161816120601860DAE798
:105A4000054B4161816120601860EEE7703AFF1FED
:105A50006C3AFF1F603AFF1F643AFF1F04ED00E03D
:105A600070B5EFF3108272B60C4C206880B10C4E0A
:105A700000254369236073B19D6102B962B6457721
:105A800083689847EFF3108272B620680028F0D13F
:105A900002B962B670BD3360EFE700BF603AFF1F26
:105AA000643AFF1FFFF7DCBF184A30B41468002CBB
:105AB00027D0036821688B420ED2CB1A0021846064
:105AC000C1602360E06010600223037530BC704742
:105AD00011688B42144608D3A2685B1A0360002A3F
